:020000040800F2
:1000000000100020311800087B180008290A000899
:1000100000000000000000000000000000000000E0
:100020000000000000000000000000007F18000831
:100030000000000000000000811800082D0A0008E0
:1000400087180008891800088B1800088D18000808
:100050008F180008911800089318000895180008D8
:1000600097180008991800089B1800089D180008A8
:100070009F180008A1180008A3180008A518000878
:10008000E9170008A9180008AB180008AD18000807
:10009000AF180008B1180008B3180008B518000818
:1000A000B7180008B9180008BB180008710A000842
:1000B000BF180008C1180008C3180008C5180008B8
:1000C000C718000810B5064C2378002B07D1054B44
:1000D000002B02D0044800E000BF0123237010BDB4
:1000E0007000002000000000A83D0008044B10B57F
:1000F000002B03D00349044800E000BF10BDC046F8
:100100000000000074000020A83D00084022920278
:100110009A1A92467047C046174B002B00D1134BDA
:100120009D46FFF7F3FF00218B460F461348144A04
:10013000121A02F035F80E4B002B00D098470D4BE9
:10014000002B00D098470020002104000D000D482E
:10015000002802D00C4800E000BF01F0FDFF2000A5
:10016000290000F0ADFB01F0E1FFC04600000800EF
:1001700000000000000000000010002070000020BF
:100180006C0100200000000000000000F0B5C64631
:100190009024802300B5E405A2691B041343A361E6
:1001A00080235B03050008260127984612E01022F1
:1001B0001343A3612022A36901201343A36100F02C
:1001C000CBF88023A2699B031343013E6D08A36112
:1001D000002E06D0A3692F42E9D142461343A36102
:1001E000E8E78022A36901201343A36100F0B4F87B
:1001F0008023A2691B041343A36180BCB846F0BDF1
:100200009023802210B5DB05996912040A439A6194
:100210008022996992030A439A6180229969520364
:100220000A43FF209A61FFF7B1FF10BD70B50E00C1
:10023000FA21C900050001F08DFEFA210400C90071
:10024000280001F06DFFFA239B00994200DD013484
:10025000E043084BC01704409C4200DD1C00064BE5
:100260006400E05CB04202DB1E38B04200DB70BDCF
:100270003000FCE74B190000CC21000870B50D00E0
:10028000FA21C900060001F065FEFA210400C90048
:10029000300001F045FFFA239B00994200DD013454
:1002A000E0430B4BC01704409C4200DD1C00094892
:1002B0006400235C04196078AB4206DD5B1BDBB293
:1002C0009B00C318D8B21B0600D470BD7F20FCE78A
:1002D0004B190000CC210008064A074BD1690B439B
:1002E000D361064B064A9A620022DA6201325A61F1
:1002F0007047C0460010024000010010002000407E
:100300007FBB000001220A4B5A61D8625A62196809
:100310001143196019699143196101211A69114248
:10032000FCD01A698A431A611A688A431A607047B6
:10033000002000408023064A9B0291690B43936191
:100340002F22044B9A622E3ADA625A617047C046F5
:100350000010024000440140012812DD0121022268
:10036000174B5961D8625A621A680A431A601A69AF
:100370008A431A611A691142FCD01A688A431A60CA
:100380007047C046C046C046C046C046C046C0468C
:10039000C046C046C046C046C046C046C046C0462D
:1003A000C046C046C046C046C046C046C046C0461D
:1003B000C046C046C046C046C0460128CED1DFE791
:1003C0000044014080232B4A9B0291690B439361B7
:1003D0009022D2059169C3072DD580235B010B4381
:1003E00093619022D205916983072DD580231B024A
:1003F0000B4393611F4A43072DD5082193690B4393
:1004000093611C4A03072ED5102193690B43936116
:100410000221184B9A690A439A61C046C046C046F9
:10042000C0468022996992020A439A61C046C0463A
:10043000C046C046704780235B050B439361902202
:10044000D20591698307D1D480231B060B439361A6
:10045000084A4307D1D4802391691B030B4393615E
:10046000044A0307D0D4802391695B030B43936153
:10047000CEE7C04600040048012110B504000A4A36
:10048000052093690B439361FFF766FF2009FFF78F
:1004900099FF1E20FFF760FF2000FFF793FF1E204B
:1004A000FFF75AFF10BDC04600040048802310B576
:1004B00004000A4A5B0291690A200B439361FFF72B
:1004C0004BFF2009FFF77EFF6420FFF745FF200068
:1004D000FFF778FF6420FFF73FFF10BD00040048DE
:1004E000802210B52F4B520299690A439A618022EB
:1004F000996992020A439A6190228021D2059069FB
:100500004905014391618021906909060143916188
:100510008022996912030A439A61802299695203E1
:100520000A439A611E20FFF7EDFE0320FFF74AFF02
:100530000620FFF7E7FE0320FFF744FF9620FFF7B2
:100540000BFF0320FFF73EFF6420FFF705FF0220AB
:10055000FFF738FF6420FFF7FFFE2820FFF7A6FF14
:100560006420FFF7F9FE0820FFF7A0FF6420FFF7E3
:10057000F3FE0120FFF79AFF0220FFF7C3FE0620DB
:10058000FFF794FF6420FFF7E7FE8020FFF78EFF60
:100590006420FFF7E1FE0E20FFF788FF6420FFF7DD
:1005A000DBFE10BD0004004810B5FFF765FF10BD6D
:1005B00070B505000078002815D0012406E0FFF78B
:1005C0005BFF285D0134E4B200280CD00A28F6D184
:1005D000B630FFF76BFF2820FFF7BEFE285D013421
:1005E000E4B20028F2D170BD10B50120FFF75EFF24
:1005F0000220FFF787FE10BD10B5002906D00129A3
:1006000009D02820FFF7A8FE002010BD8023184342
:10061000FFF74CFFF5E7802340305B421843C0B240
:10062000FFF744FFEDE7C04601210F4AD3681942A6
:10063000FCD1022113690B431361506113693E31F0
:100640000B431361C046084A3F39D3681942FCD1B5
:100650002023D1680B4200D0D3600221024A1369E3
:100660008B4313617047C0460020024010B501243F
:10067000174AD3681C42FCD113691C438BB2146126
:100680000380C0460124124AD3681C42FCD12023B7
:10069000D468234200D0D36001220D4CE3681A4293
:1006A000FCD1090C4180C04601220949CB681A429D
:1006B000FCD12021064AD3681942FCD0D3681942E4
:1006C00000D0D1600121024A13698B43136110BD30
:1006D000002002400C20002170B51C4D1C4C030072
:1006E0000C3BE658EA580433921B561EB241891857
:1006F0008342F6D118000C30782BF0D1002923D09A
:100700000121144A13680B431360D3681942FCD1CA
:1007100013691B0613D41048FFF786FF0E4C0F4ECB
:100720000F4D200031590434FFF7A0FFAC42F8D13F
:1007300080210120074A13690B43136170BD094BE7
:100740005360094B5360E6E70020F7E7BC00002048
:10075000007C000800200240007C0008BC84FF17D9
:10076000787C000823016745AB89EFCD074B084A29
:1007700019007831186810605868506098680C3318
:1007800090600C328B42F5D17047C046007C000867
:10079000BC0000208023454A5B0211680B43802186
:1007A0001360890213680B42FCD0032153688B430A
:1007B00053603E4A093153681942FCD113683C49E1
:1007C0000B4080211360394A890413680B42FCD125
:1007D000536838491940A0239B030B4353600523FA
:1007E000D362802351685B020B43536080231168FE
:1007F0005B040B43802113602C4A890413680B426D
:10080000FCD0022153680B435360284A0A315368D5
:100810000B40082BFBD1C0235169DB020B43536112
:100820009023DB059968244A0A439A60234A916819
:10083000012149429160AA21D868C90301430120DE
:10084000D960196801431960A0211068C9010143EA
:100850001160802118688901014319608021186A9C
:100860004904014319628A211868C90101431960CA
:1008700082211868C9050143196046211068FF31BB
:10088000014311608021106809010143116080213A
:10089000106A490301431162A0211A680A431A60D1
:1008A0008822196A52010A431A62704700100240F6
:1008B000FFFFFFFEFFFFC3FFFFFFFFC30004004871
:1008C000F8B5DE4657464E464546E0B5FFF762FFAF
:1008D00090228023D2059169DB030B439361FFF7DC
:1008E000FBFCFFF727FDFFF7FBFDFFF77DFE404810
:1008F000FFF75EFE00211120FFF77EFE01F044F8B5
:10090000FFF77EFC00F088FE00F06CF9FFF72EFF89
:10091000002000F015FA3748FFF7F4FCFFF764FEFB
:1009200000F026FA344801F067F8344801F064F822
:1009300001F0A6F8C021324A324B33485360036AB3
:1009400009061B021B0A0B43036200239360073353
:1009500013602E4B2E4E9B462E4B2F4D9A462F4BFF
:100960002F4F984600232F4C994613E043463A6890
:10097000186890420BD02368002B24DD013B2360D4
:10098000002B04D100F056FB64235B4223600A2055
:10099000FFF7B8FC00F0D8FC00F0C4FB3368002B74
:1009A00009D12B68002BE1D05346187800F026FBC4
:1009B0004B462B60DAE7584601F05AF9002813D16C
:1009C0004B463360EDE7002B0AD001332360002B48
:1009D000DDD1100000F02EFB96235B002360D6E7EC
:1009E00096235B002360D2E700F0C2F9E8E7C04637
:1009F000183B0008B80B00003C3B0008503B0008C7
:100A000010E000E0FF3D490000ED00E0340100206F
:100A10009400002000000020B0000020980000207A
:100A2000A00000209C000020FEE7C0469023DB05CC
:100A30001B699B0706D50C4B1A783F2A0FD0202242
:100A40001A707047084B1A78202A02D03F221A7079
:100A5000F7E70121054A11603F221A70F1E70121F1
:100A6000024A1160EBE7C04600000020B000002001
:100A7000174BDA69920612D59B8C99B2DBB2082B20
:100A800013D07F2B11D01F2B1AD80D2B07D100218B
:100A9000104B114A1B68D1540122104B1A600C4AAA
:100AA0000F4B116A0B43136270470A4A1368002BFD
:100AB000FADD013B1360FF231940054B1985F3E76D
:100AC000044905480A68835401320A60E7E7C046D2
:100AD000003801408C0000203401002094000020E8
:100AE0005F0A020007239943F0B50D00C646034094
:100AF0001D438023254F00B5BA69DB031343BB6157
:100B00008023BA691B041343BB61802390245B02DA
:100B100020269846E40512E08023BA691B0413439B
:100B2000BB610A20FFF718FC0122A3690A201343C6
:100B3000A361013EFFF710FC6D00002E0AD0424673
:100B4000A3691343A361002DE6DA8022BB69134336
:100B5000BB61E6E78023A2695B021343A3610A201D
:100B6000FFF7FAFB4022094C0A20A3691343A36153
:100B7000FFF7F2FB8023A269DB0313430A20A36182
:100B8000FFF7EAFB80BCB846F0BDC0460004004851
:100B900084B010B50593212303910492029002AA18
:100BA000D05C0799FFF79EFF202302AAD05C06992C
:100BB000FFF798FF02ABD87F0599FFF793FF02ABD1
:100BC000987F0499FFF78EFF02AB587F0399FFF7D8
:100BD00089FF02AB187F0299FFF784FF10BC08BCA5
:100BE00004B01847962370B5254CDB032360254BD2
:100BF00006226360244B2025A360244B2449E36034
:100C0000244B052023610023A361234B6161E36131
:100C1000224B23842223E254FFF764FF1420FFF7C2
:100C200071FB605D2169FFF75DFFE07FE168FFF721
:100C300059FFA07FA168FFF755FF607F6168FFF74C
:100C400051FF207F2168FFF74DFF21236169E05CA0
:100C5000FFF748FF605D2169FFF744FFE07FE1682F
:100C6000FFF740FFA07FA168FFF73CFF607F61684E
:100C7000FFF738FF2168207FFFF734FF70BDC046C3
:100C80004801002001FD00204278007803080000A0
:100C9000050040013C0088620001020304050000D9
:100CA000F0B50024214A87B01300234183423BDB87
:100CB0000134082CF8D180252D04FA21A040C90167
:100CC000070001F047F9FA210600C901380001F0D8
:100CD00027FA0800CB170721194073019B1B9B00C3
:100CE00009189B19C9105B015B18DB002341104FE9
:100CF0001C003A690F4B104813401D433B006A46E5
:100D0000C9000140F0030D4E3D613040084338609A
:100D1000103362CB62C222CB22C204370ECFFFF760
:100D200037FF200007B0F0BD2505C6E7C0C62D007F
:100D300048010020FFFF8FFFF87F00000080FF7F49
:100D40004300074A181880008158064B1018196094
:100D50004268054B1A608268044B1A607047C046AF
:100D6000BC00002098000020A8000020A400002063
:100D7000F0B5C646002100B50020FFF73DFC8B4EC4
:100D800030683030C0B2FFF70FFC2020FFF70CFCBA
:100D90002020FFF709FC00210420FFF72DFC202074
:100DA000FFF702FC824D834B2C6830209C4206DD0D
:100DB000814A013094466444C0B29C42F8DCFFF79B
:100DC000F3FB7E4B30209C4206DD7D4A0130944689
:100DD0006444C0B29C42F8DCFFF7E6FB794B30205C
:100DE0009C4206DD784A013094466444C0B29C427D
:100DF000F8DCFFF7D9FBFA2330209B009C4206DB8E
:100E0000724A013094466444C0B29C42F8DAFFF75B
:100E1000CBFB2E20FFF7C8FB3020632C04DD013014
:100E2000643CC0B2632CFADCFFF7BEFB3020092C17
:100E300004DD01300A3CC0B2092CFADCFFF7B4FB38
:100E400020003030C0B2FFF7AFFB6148FFF7B0FBC6
:100E5000604F3B681A000932122A00D89CE0002B30
:100E600000DA93E02B20FFF79FFB3C68092C09DD9B
:100E7000302001300A3CC0B2092CFADC302801D005
:100E8000FFF792FB20003030C0B2FFF78DFB5248D5
:100E9000FFF78EFB514B1C689846002C00D180E078
:100EA000484A30201300944206DD474A01309446F8
:100EB0006444C0B29C42F8DCFFF776FBFA23302092
:100EC0009B009C4206DB414A013094466444C0B218
:100ED0009C42F8DAFFF768FB2E20FFF765FB302015
:100EE000632C04DD0130643CC0B2632CFADCFFF7F4
:100EF0005BFB3020092C04DD01300A3CC0B2092C18
:100F0000FADCFFF751FB20003030C0B2FFF74CFB9A
:100F100043461B68002B35D03148FFF749FB0F20B3
:100F20000100304B1A68D31719401B0F8918D218CB
:100F30001040C01A0911C9B2C0B2FFF75DFB2868A2
:100F4000FFF7AEFE284B396818602868FFF796F95E
:100F5000FFF71CF94346186800F0A0FB3168234AEC
:100F60004B005B1829689B009950D3183A685A6067
:100F7000424612689A60C8221D4B52421A6080BCD9
:100F8000B846F0BD1B48FFF713FBC8E72D20FFF75D
:100F90000BFB3B685C4269E72020FFF705FB3B68E1
:100FA0005DE71548FFF704FBB2E7C046AC00002040
:100FB000980000203F420F00C0BDF0FF9F86010057
:100FC0006079FEFF0F270000F0D8FFFF18FCFFFF3D
:100FD000583B0008A8000020603B0008A400002047
:100FE000703B000890000020A0000020BC00002002
:100FF0009C000020743B0008683B000810B504000A
:1010000000210320FFF7F8FA2000FFF7CDFA0F20A8
:101010000100074B1A68D31719401B0F8918D21803
:101020001040C01A0911C9B2C0B2FFF7E5FA10BDED
:101030009000002010B5002104000520FFF7DCFA25
:10104000304B30209C4206DD2F4A013094466444E8
:10105000C0B29C42F8DCFFF7A7FA2C4B30209C4230
:1010600006DD2B4A013094466444C0B29C42F8DC51
:10107000FFF79AFA274B30209C4206DD264A0130C2
:1010800094466444C0B29C42F8DCFFF78DFAFA2320
:1010900030209B009C4206DB204A01309446644489
:1010A000C0B29C42F8DAFFF77FFA2E20FFF77CFAF5
:1010B0003020632C04DD0130643CC0B2632CFADCC8
:1010C000FFF772FA3020092C04DD01300A3CC0B26F
:1010D000092CFADCFFF768FA20003030C0B2FFF7C5
:1010E00063FA0F2001000E4B1A68D31719401B0F2B
:1010F0008918D2181040C01A0911C9B2C0B2FFF73E
:101100007BFA10BD3F420F00C0BDF0FF9F8601007B
:101110006079FEFF0F270000F0D8FFFF18FCFFFFEB
:1011200090000020F0B5C646902300B5DB05814C49
:101130001B692568DB052BD4032D5ED8052305220A
:1011400023600F23D1170E0F9019194018408918EA
:10115000801B0911C0B2C9B2FFF74EFA9023DB051C
:101160001B69DB0511D4744BC8279846734E0120C8
:10117000FFF7C8F89023DB051A69120544D51B69EF
:10118000013FDB0501D4002FF1D10A20FFF7BAF8A7
:101190009023DB051A69802311001B0119401A42B4
:1011A00028D12268531E03D4901E032800D994E04E
:1011B000002321600F2018401B11D9B2FFF71CFA41
:1011C0009023DB051B691B0511D45B4BC827984690
:1011D0005A4E0120FFF796F89023DB051A69D205D5
:1011E0003AD51B69013F1B0501D4002FF1D10A201C
:1011F000FFF788F880BCB846F0BD6A1C082D5BD1AB
:101200000A230A2223609CE7002100202560FFF7C3
:10121000F3F93000FFF7CCF9FFF75CFA002847D06C
:101220004748FFF7C5F94748FFF76CF8FFF7DCF9C7
:10123000FFF79EFD902280218020D2050901400009
:1012400013690B42FCD013690342F9D013690342BE
:101250009BD101277F428AE7002100202560FFF70C
:10126000CBF93000FFF7A4F9FFF734FA00281BD0C0
:101270003348FFF79DF93348FFF744F8FFF7B4F917
:10128000FFF776FD902280218020D20509014000E1
:1012900013690B42FCD013690342F9D013690B4266
:1012A000A5D101277F4294E74046FFF781F9E2E7A5
:1012B0004046FFF77DF9B6E72B000C3B2260032B7D
:1012C00003D81123112223603BE72B00123B032B91
:1012D00010D817231722236033E72360092B02D18C
:1012E000013B236066E711000E39032911D80C2356
:1012F00023605FE7192A04D11A2301210A20236001
:101300002AE71C2A00DC1CE71C2301210C20236097
:1013100022E7143A032A04D8122301210220236071
:101320004CE7192B00D045E7182301210820236042
:1013300044E7C04690000020A03B0008783B00082E
:101340008C3B0008B80B0000902370B5DB051B69CF
:101350009B0527D49F4B1B681C2B03D89E4A9B00E0
:10136000D3589F469D4B9E4D186829689D4C9E4AB8
:10137000904201DD10001A60FEF758FF9B4B226877
:1013800028609A4200DD2360FFF7F2FC00F078FB52
:1013900090218022C90592000B691342FCD00A20DB
:1013A000FEF7B0FF9023DB051B695B0527D4894B53
:1013B0001A681C2A03D88E499300CB589F46874B46
:1013C000874D18682968874C002802DA002200201F
:1013D0001A60FEF72BFF23682860002B01DA002338
:1013E0002360FFF7C5FC00F04BFB90218022C9056C
:1013F000D2000B691342FCD00A20FEF783FF70BDB8
:10140000774D764B296818680A39764C2960DBE7F6
:10141000734D744C2B68591E704B29601868D3E7C4
:10142000744A704C9446236863446D4D23606B4B43
:1014300029681868C8E7704A6A4C94462368634470
:10144000F3E7684C2368643BEFE7664C23680A3B8C
:10145000EBE7644C2368013BE7E7604B65491A689A
:101460008C465F4D6244100029685E4C1A60ABE701
:101470005A4B61491A68F3E7584B594D1868296867
:101480006438584C18609FE7544B554D18682968CC
:101490000A38544C186097E7504B58491A68DFE7F0
:1014A0004E4B57491A68DBE756490B68013B00D59C
:1014B0008BE00B605A005449D218920050588A1899
:1014C0005168464B464D474C92681860296022602F
:1014D0007AE7424B424D1A682968501E414C186009
:1014E00072E7404C236801333D4D23603B4B296834
:1014F00018683CE7434A13680133092B00DD0923D0
:1015000013605A004049D218920050588A18516806
:10151000324B334D334C926818602960226026E7C5
:101520002E4B3A491A688C462D4D624410002968AA
:101530002C4C1A601BE7294B35491A68F3E7274BF7
:1015400034491A68EFE7FA21244B89001A68EAE760
:10155000224B234D186829686430224C186006E736
:101560001E4B1F4D186829680A301E4C1860FEE695
:101570001A4B1B4D1A682968501C1A4C1860F6E665
:10158000174D164B296818680A31164C2960EEE68B
:10159000134D144C2B68591C104B29601868E6E653
:1015A0001C4A104C9446236863449DE7FA2292003B
:1015B00094460C4C2368634496E70A4C23686433D2
:1015C00092E7084C23680A338EE700230B60130070
:1015D00070E7C04690000020B43B0008980000204F
:1015E000A8000020A4000020C0CF6A0050C3000063
:1015F000283C0008F0D8FFFF18FCFFFFC0BDF0FF3B
:101600006079FEFFAC000020BC00002040420F00CB
:10161000A08601001027000010B51B4A1B4BD169A2
:1016200001200B439021D361194B60241A680A43AF
:101630001A6000229A60D9680143D96099692143F0
:101640009961C0219C69C901214399619C69114933
:10165000214311249961196A2143196201214942E8
:101660005A629A62D96280215A639A6358618023D0
:10167000094A4902D150C42189005358FE3083439E
:10168000BF380343535010BD001002400200001049
:10169000000400400808000000E100E0802370B56D
:1016A000434A9B03916904000B439361902380217B
:1016B000DB059869C9030143996119683D480140F8
:1016C000196011683C4801401160002C3DDD632C1D
:1016D00020DC2100394800F03DFC2100050037489E
:1016E00000F01EFD364B6A101960364B013D1C6040
:1016F000354B1C60354B5A639A63354ADD620121D4
:101700009A6259611A680A431A608022314B520268
:101710001A6070BDFA2321009B009C4231DC2E48E8
:1017200000F018FC210005002B4800F0F9FC244BC8
:101730006A101960234B013D1C60234B1C60234B36
:101740005A639A630722DD62D9E701241F490868BA
:10175000A04308604C61802480211E4864024450EC
:1017600019681E480140196011681D480140202079
:10177000116091690143916140219A690A439A611C
:10178000C7E7184800F0E6FB21000500154800F007
:10179000C7FC0B4B6A1019600A4B013D1C600A4BD9
:1017A0001C600A4B5A639A630022DD62A7E7C046B9
:1017B00000040048FFEFFFFFFFFBFFFF50C30000E6
:1017C000B800002004000020B40000200004004005
:1017D000BF03000000E100E0808D5B00FFDFFFFF42
:1017E000FFF7FFFF006CDC0200220D4B1A610D4A6F
:1017F0001268002A07D00C480168002904D08A42E8
:1018000009D0013901607047084A12680260DA6A3B
:10181000013ADA62F7E7DA6A0132DA62F1E7C046E2
:1018200000040040B8000020B400002004000020A4
:101830000749084A084B9B1A05DD00240859105136
:1018400004349C42FADB0548804705480047000005
:10185000B43D00080000002070000020D1180008EE
:10186000190100081849194A002301E00B600431EE
:101870009142FBD3FFF724F8FEE7FEE7FEE7FEE721
:10188000FEE7FEE7FEE7FEE7FEE7FEE7FEE7FEE730
:10189000FEE7FEE7FEE7FEE7FEE7FEE7FEE7FEE720
:1018A000FEE7FEE7FEE7FEE7FEE7FEE7FEE7FEE710
:1018B000FEE7FEE7FEE7FEE7FEE7FEE7FEE7FEE700
:1018C000FEE7FEE7FEE7FEE7700000206C01002067
:1018D0000121254B25481A680A431A605A680240BC
:1018E0005A601A68224802401A601A682148024069
:1018F0001A605A68204802400F205A60DA6A824310
:10190000DA621A6B1D4802401A635A6B8A435A63A3
:1019100000229A601A4A103111605A6819495A60B7
:101920005A685A605A680A405A60A022596892035D
:101930000A435A608022196852040A431A608022BE
:10194000920419681142FCD003215A688A435A60F4
:101950005A6801390A435A600C2203494B68134004
:10196000082BFBD17047C046001002400CB8FF089E
:10197000FFFFF6FEFFFFFBFFFFFFC0FFECFEFFFFD8
:1019800000200240FFFFC2FF8023164ADB0191695D
:10199000C6200B439361144B144A8000DA60802206
:1019A000196812020A4304211A601A680A431A606D
:1019B0001A6804310A431A600D4A18315A611A68CC
:1019C0000A431A601A681F390A4380211A60094ABB
:1019D000C90513581B021B0A0B43135080231B0518
:1019E00013607047001002400038014010270000CB
:1019F000FFFFFF0000E100E00378002B0CD0402146
:101A0000064A01309BB21385D3691942FCD00130DC
:101A1000431E1B78002BF5D17047C04600380140AB
:101A2000F0B585B001AE32000F00144B040003CBBB
:101A300003C219883D0011809B789370002C17DB3E
:101A400020000A21013500F085FA0028F9D128701C
:101A500020000A2100F064FB735C013D20000A2194
:101A60002B7000F077FA041EF2D1380005B0F0BDFB
:101A70002D237D1C3B706442E2E7C0469C3C00087D
:101A800010B54E4B84B001AC18682100FFF7C8FFB9
:101A90002378002B0DD06A464021501D484A9BB246
:101AA0001385D3691942FCD00130431E1B78002BEB
:101AB000F5D120234021424A1385D3691942FCD035
:101AC0004021404B1B7813853D4AD3691942FCD015
:101AD0002023138540223A49CB691A42FCD03A4B65
:101AE00021001868FFF79CFF2378002B0DD06A4671
:101AF0004021501D324A9BB21385D3691942FCD054
:101B00000130431E1B78002BF5D16B2340212F4859
:101B10002B4A9BB21385D3691942FCD00130431E76
:101B20001B78002BF5D12A4B21001868FFF778FFAE
:101B30002378002B0DD06A464021501D204A9BB2CD
:101B40001385D3691942FCD00130431E1B78002B4A
:101B5000F5D1642340211F48194A9BB21385D369EC
:101B60001942FCD00130431E1B78002BF5D11A4BD3
:101B700021001868FFF754FF2378002B0DD06A4628
:101B80004021501D0E4A9BB21385D3691942FCD0E7
:101B90000130431E1B78002BF5D1482340210F480C
:101BA000074A9BB21385D3691942FCD00130431E0A
:101BB0001B78002BF5D104B010BDC046AC0000204E
:101BC000003801400000002098000020A93C0008D7
:101BD000A8000020613B0008A4000020B13C0008E0
:101BE000F0B5224B85B001AA060011CB11C210003E
:101BF0001A8802809B78837033782D2B30D02B2B62
:101C000027D001239C460023002927D00027C9188C
:101C1000F51876186B4600215A1D2C78302305E004
:101C20000132531E1B780131002B01D09C42F7D1A9
:101C30000B000A3B5A1E9341B800C0195B42194081
:101C4000400001350F18AE42E4D16046784305B03C
:101C5000F0BD2A3B01399C460029D7D10020F6E788
:101C60002E3B9C4601390233CEE7C0469C3C00081F
:101C700070B5A14C2368002B37D00378682B5CD15A
:101C8000030065219D4A00E051785D7801330132FF
:101C90008D422CD10029F7D10D2340219848994A33
:101CA0009BB21385D3691942FCD00130431E1B78C7
:101CB000002BF5D100230120236070BD002900D046
:101CC0000BE103310430FFF78BFFC0B2FEF75EFA81
:101CD0004F2340208C4A8B499BB20B85CB69034232
:101CE000FCD053780132002BF6D10020E5E7002923
:101CF000D2D00200854B03E0002905D00132013328
:101D000011781D78A942F7D0002D6ED1052102303F
:101D1000FFF766FF7E4B984262DD7E4A13604F23D9
:101D20004020794A77499BB20B85CB690342FCD0AE
:101D300053780132002BF6D1BCE7412B28D10100AA
:101D40002023754A00E053784D78013101329D42DD
:101D50001BD1002BF7D103210230FFF741FF6F4B5E
:101D600001001868FEF762FA6D4B402118604F239E
:101D70006C48644A9BB21385D3691942FCD0013088
:101D8000431E1B78002BF5D194E7002BE3D0B0E77E
:101D90000100654A462BACD14B78557801310132B0
:101DA000AB421AD1002DF7D107210230FFF718FFFF
:101DB0005E4B984238DD594B5D4A1A604F234020F4
:101DC000584A50499BB20B85CB691842FCD001326E
:101DD000531E1B78002BF5D16CE7002DE4D088E76B
:101DE0004C4B00281EDA1D6099E70200514B03E0BE
:101DF000002D05D001320133157819788D42F7D0C6
:101E0000002916D1FEF766FC4F2340203E4A3D498B
:101E10009BB20B85CB690342FCD053780132002B77
:101E2000F6D147E718607AE73C4B00280CDA1D60D2
:101E3000C4E70200404B157819788D4206D1002D79
:101E400004D001320133F6E71860B7E7002914D156
:101E50004F2340202C4A2B499BB20B85CB69034270
:101E6000FCD053780132002BF6D1BFF34F8F334BA8
:101E7000334ADA60BFF34F8FFEE70200314B15782B
:101E800019788D4204D1002D02D001320133F6E7DA
:101E9000002915D101310230FFF7A2FE2A4B18604C
:101EA000FEF74EFF4F234020174A16499BB20B8581
:101EB000CB690342FCD053780132002BF6D1F9E60E
:101EC0000200224B157819788D4200D0F6E6002DDD
:101ED00000D1F3E601320133F4E7552040211C4BD9
:101EE000084A80B21085D0690842FCD05878013386
:101EF0000028F6D12060E0E68C000020B83C000805
:101F0000E93C000800380140783D0008C83C000862
:101F100050C30000A4000020C03C0008980000202E
:101F2000A8000020793D0008C43C0008C0CF6A002A
:101F3000808D5B00CC3C0008D83C000800ED00E040
:101F40000400FA05DC3C0008AC000020E03C00087E
:101F5000803D000803460B437FD4002243088B4298
:101F600074D303098B425FD3030A8B4244D3030B20
:101F70008B4228D3030C8B420DD3FF22090212BAE5
:101F8000030C8B4202D31212090265D0030B8B4261
:101F900019D300E0090AC30B8B4201D3CB03C01A4B
:101FA0005241830B8B4201D38B03C01A5241430B26
:101FB0008B4201D34B03C01A5241030B8B4201D316
:101FC0000B03C01A5241C30A8B4201D3CB02C01A81
:101FD0005241830A8B4201D38B02C01A5241430AF9
:101FE0008B4201D34B02C01A5241030A8B4201D3E8
:101FF0000B02C01A5241CDD2C3098B4201D3CB018F
:10200000C01A524183098B4201D38B01C01A52413D
:1020100043098B4201D34B01C01A524103098B4241
:1020200001D30B01C01A5241C3088B4201D3CB002C
:10203000C01A524183088B4201D38B00C01A52410F
:1020400043088B4201D34B00C01A5241411A00D2BF
:1020500001465241104670475DE0CA0F00D0494228
:10206000031000D34042534000229C4603098B4298
:102070002DD3030A8B4212D3FC22890112BA030A20
:102080008B420CD3890192118B4208D389019211A2
:102090008B4204D389013AD0921100E08909C30927
:1020A0008B4201D3CB01C01A524183098B4201D329
:1020B0008B01C01A524143098B4201D34B01C01A14
:1020C000524103098B4201D30B01C01A5241C3088C
:1020D0008B4201D3CB00C01A524183088B4201D3FB
:1020E0008B00C01A5241D9D243088B4201D34B0016
:1020F000C01A5241411A00D20146634652415B1058
:10210000104601D34042002B00D549427047634638
:102110005B1000D3404201B5002000F005F802BD7D
:102120000029F8D016E770477047C046084B10B535
:102130000400002B02D0002100E000BF054B18680E
:10214000836A002B00D09847200000F031F8C04689
:1021500000000000A43D000870B500260C4D0D4C99
:10216000641BA410A64209D1002600F023F80A4DF2
:102170000A4C641BA410A64205D170BDB300EB58F5
:1021800098470136EEE7B300EB5898470136F2E77F
:102190006800002068000020680000206C0000201B
:1021A00003008218934200D1704719700133F9E798
:1021B000FEE7C046F8B5C046F8BC08BC9E4670476E
:1021C000F8B5C046F8BC08BC9E467047040305033A
:1021D00007030803080309030A030B000B030C00A1
:1021E0000C030C030D010D030D030E010E020E0373
:1021F0000E030E030F010F010F020F020F030F0357
:102200000F030F030F030F03100010001000100145
:102210001001100110011001100110011001100136
:102220001001100110011001100110011001100126
:102230001001100110011001100110011001100116
:102240001001100110011001100110011001100106
:1022500010011001100110011001100110011001F6
:1022600010011001100110011001100110011001E6
:1022700010011001100110011001100110011001D6
:1022800010011001100110011001100110011001C6
:1022900010011001100110011001100110011001B6
:1022A00010011001100110011001100110011001A6
:1022B0001001100110011001100110011001100196
:1022C0001001100110011001100110011001100186
:1022D0001001100110011001100110011001100176
:1022E0001001100110011001100110011001100166
:1022F0001001100110011001100110011001100156
:102300001001100110011001100110021002100242
:10231000100210021002100210021002100210022D
:102320001002100210021002100210011001100120
:102330001001100110011001100110011001100115
:102340001001100110011001100110011001100105
:1023500010001000100010001000100010001001FC
:1023600010011001100110011001100110011001E5
:1023700010011001100110011001100110011001D5
:1023800010011001100110011001100110011001C5
:1023900010011001100110011001100110011001B5
:1023A00010011001100110011001100110011001A5
:1023B0001001100110011001100110011001100195
:1023C0001001100110011001100110011001100185
:1023D0001001100110011001100110011001100175
:1023E0001001100110011001100110011001100165
:1023F0001001100110011001100110011001100155
:102400001001100110011001100110011000100145
:10241000100010001000100010001000100010003C
:10242000100010001000100010001000100010002C
:102430001000100010001000100110011001100118
:102440001001100110011001100110011001100104
:1024500010011001100110011001100110011001F4
:1024600010011001100110011001100110021002E2
:1024700010021002100110011001100110011001D2
:1024800010011001100110011001100110011001C4
:1024900010011001100110011001100110011001B4
:1024A000100210021002100210021002100210029C
:1024B000100210021002100210021002100310038A
:1024C0001003100210031003100310021002100278
:1024D000100210021002100210021002100210026C
:1024E0001001100110011001100110011001100164
:1024F000100110011001100210021002100210024F
:10250000100210021002100210021002100210023B
:10251000100210021002100210021002100210022B
:102520001002100210021003100310031003100316
:102530001003100310031003100310031003100303
:1025400010031003100310021002100210021002F8
:1025500010021002100210021002100210021002EB
:1025600010021002100210021002100210021002DB
:1025700010021002100210021002100310031003C8
:1025800010031003100310031003100310031003B3
:1025900010031003100310031003100310031003A3
:1025A0001003100310031003100310031003100393
:1025B0001003100310031003100310031003100383
:1025C000100210021002100210021002100210037A
:1025D000100210021002100210021002100310026A
:1025E0001003100310031003100310031003100353
:1025F0001003100310031003100310031003100343
:102600001003100310031003100310021002100235
:10261000100210021002100210021002100210022A
:102620001002100210021002100210031003100317
:102630001003100310031003100310031003100302
:1026400010031003100310031003100310031003F2
:1026500010031003100310031003100310031003E2
:1026600010031003100310031003100310031003D2
:1026700010031003100310031003100310031003C2
:1026800010021002100210031002100210021002B9
:1026900010021002100210021002100210021002AA
:1026A0001002100210021002100210031003100397
:1026B0001003100310031003100310031003100382
:1026C0001003100310031003100310031003100372
:1026D0001003100310031003100310031003100362
:1026E0001003100310031003100310031003100352
:1026F0001003100310031003100310031003100342
:102700001003100310031003100310031003100331
:102710001003100310031003100310031003100321
:102720001003100310031003100310031003100311
:102730001003100310031003100310031003100301
:1027400010031003100310031003100310031003F1
:1027500010031003100310031003100310031003E1
:1027600010031003100310031003100310031003D1
:1027700010031003100310031003100310031003C1
:1027800010031003100310031003100310031003B1
:1027900010031003100310031003100310031003A1
:1027A0001003100310031003100310031003100391
:1027B0001003100310031003100310031003100381
:1027C0001003100310031003100310031003100371
:1027D0001003100310031003100310031003100361
:1027E0001003100310031003100310031003100351
:1027F0001003100310031003100310031003100341
:102800001003100310031003100310031003100330
:102810001003100310031003100310031003100320
:102820001003100310031003100310031003100310
:102830001003100310031003100310031003100300
:1028400010031100110011001100110011001100FE
:1028500011001100110011001100110011001100F0
:1028600011001100110011001100110011001100E0
:1028700011001100110011001100110011001100D0
:1028800011001100110011001100110011001100C0
:1028900011001100110011001100110011001100B0
:1028A00011001100110011001100110011001100A0
:1028B0001100110011001100110011001100110090
:1028C0001100100310031003100310031003100372
:1028D0001003100310031003100310031003100360
:1028E0001003100310031003100310031003100350
:1028F0001003100310031003100310031003100340
:102900001003100310031003110010031100110035
:10291000110011001100110011001100110011002F
:10292000110011001100110011001100110010031D
:1029300010031003100310031003100310031003FF
:1029400010031003100310031003100310031003EF
:1029500010031003100310031003100310031003DF
:1029600010031003100310031003100310031003CF
:1029700010031003100310031003110011001100C5
:1029800011001100110011001101110111011101BB
:1029900011011101110111011101110111011101A7
:1029A0001101110111011101110111011101110197
:1029B0001101110111011101110111011101110187
:1029C0001101110111011101110111011101110177
:1029D0001101110111011101110111011101110167
:1029E0001101110111011101110111011101110157
:1029F0001101110111011101110011011101110148
:102A00001101110111011101110111011101110136
:102A10001101110111011102110211021102110221
:102A20001102110211021101110111011101110113
:102A30001101110111011101110111011101110106
:102A400011011101110111011101110111001100F8
:102A500011001100100310031003100310031003E2
:102A600010031002100210021002100210021002D5
:102A700010021002100210021002100210021002C6
:102A800010021002100310031003100310031003B0
:102A900010031003100210021002100210021002A4
:102AA0001002100210021002100210021002100296
:102AB0001002100210021002100210021003100285
:102AC000100310031003100310031003100310036E
:102AD000100310031003100310031003100310035E
:102AE000100310031100110011001100110011005A
:102AF0001003110010031003100310031003100340
:102B0000100310031003100310031003100310032D
:102B1000100310031003100310031003100310031D
:102B20001003100310031002100210021002100311
:102B30001002100210021002100210031003100302
:102B400010021003100310031003100310031003EE
:102B500010031003100310031003100310031003DD
:102B600010031003100310031003100310031003CD
:102B700010031003100310031003100310031003BD
:102B800010031003100310031003100310031003AD
:102B9000100310031003100310031003100310039D
:102BA000100310031003100310031003100310038D
:102BB0001002100210021002100210021002100285
:102BC0001002100210021002100210021002100275
:102BD000100210021001100110011001100110016B
:102BE000100110011001100110011001100110015D
:102BF000100110011001100110011001100110004E
:102C00001000100010001000100010001000100143
:102C1000100110011001100110011001100110012C
:102C20001001100010001000100010001000100023
:102C30001000100010001000100010001000100014
:102C40000F030F030F030F030F030F030F030F03F4
:102C50000F030F030F030F030F030F030F030F03E4
:102C60000F030F030F030F030F030F030F020F02D6
:102C70000F020F020F020F020F020F020F020F02CC
:102C80000F020F020F020F020F020F030F030F03B9
:102C90000F030F030F030F020F020F020F020F02A9
:102CA0000F020F020F020F020F020F020F020F029C
:102CB0000F020F020F020F020F020F020F020F028C
:102CC0000F010F010F010F020F010F020F010F0182
:102CD0000F010F020F020F020F020F020F020F026D
:102CE0000F020F020F020F020F020F020F020F025C
:102CF0000F020F020F020F020F020F020F020F024C
:102D00000F020F020F020F020F020F020F020F023B
:102D10000F020F020F020F020F020F020F020F022B
:102D20000F020F020F020F020F020F020F020F021B
:102D30000F020F020F020F020F020F020F020F020B
:102D40000F020F020F020F020F020F020F020F02FB
:102D50000F020F020F020F020F020F020F020F02EB
:102D60000F020F020F020F020F020F020F020F02DB
:102D70000F020F020F020F020F020F020F020F02CB
:102D80000F020F020F020F020F020F020F010F01BD
:102D90000F010F010F010F010F010F010F010F01B3
:102DA0000F010F010F010F010F010F010F000F00A5
:102DB0000F000F000F010F010F010F010F010F0195
:102DC0000F010F000F000F010F010F010F010F0086
:102DD0000F000F000F000F000F000F000F000F007B
:102DE0000F000F000F000F000F000F000F000F006B
:102DF0000F000F000F000F000F000F000F000F005B
:102E00000F000F000F000F000F000F000F000F004A
:102E10000F000F000F000F000E030E030E030E0332
:102E20000E030E030E030E030E030E030E030E031A
:102E30000E030E030E030E030E020E020E020E020E
:102E40000E020E020E020E020E020E010E010E0105
:102E50000E010E010E010E010E010E010E010E01FA
:102E60000E010E010E010E010E000E000E000E00EE
:102E70000E000E000E000E000E000E000E000E00E2
:102E80000E000E000E000E000E000E000E000E00D2
:102E90000E000E000E000D030E000D030D030D03BA
:102EA0000D030D030D030D020D020D020D020D02A7
:102EB0000D020D020D020D020D020D020D020D029A
:102EC0000D020D020D020D020D020D020D020D028A
:102ED0000D020D020D020D020D020D020D020D027A
:102EE0000D020D020D020D020D020D020D010D016C
:102EF0000D010D010D010D010D010D010D010D0162
:102F00000D010D010D010D010D010D010D000D0053
:102F10000D000D000D000D000D000D000D000D0049
:102F20000D000D000D000D000D000D000D000D0039
:102F30000D000D000D000D000D000D000D000D0029
:102F40000D000D000D000D000D000D000D000D0019
:102F50000D000D000D000D000D000D000C030C0305
:102F60000C030C030C030C030C030C030C030C03E9
:102F70000C030C030C030C030C030C030C030C03D9
:102F80000C030C030C030C030C030C030C030C03C9
:102F90000C030C030C020C020C020C020C020C02BF
:102FA0000C020C020C020C020C020C020C020C02B1
:102FB0000C020C020C020C020C020C020C020C02A1
:102FC0000C020C020C010C010C010C010C010C0197
:102FD0000C010C010C010C010C010C010C010C0189
:102FE0000C010C010C010C010C010C010C010C0179
:102FF0000C010C010C010C010C010C010C010C0169
:103000000C010C010C010C010C010C010C010C0158
:103010000C010C010C010C010C010C010C010C0148
:103020000C000C000C000C000C000C000C000C0040
:103030000C000C000C000C000C000C000C000C0030
:103040000C000C000C000C000C000C000C000C0020
:103050000C000C000C000C000C000C000C000C0010
:103060000C000C000B030B030B030B030B030B03F4
:103070000B030B030B030B030B030B030B030B03E0
:103080000B030B030B030B030B030B030B030B03D0
:103090000B030B030B020B020B020B020B020B02C6
:1030A0000B010B010B010B020B020B020B020B02BB
:1030B0000B020B020B020B010B010B010B010B01AD
:1030C0000B000B000B000B000B000B000B000B00A8
:1030D0000A030A030A030A030A030A030A030A0388
:1030E0000A030A030A020A030A020A020A020A027D
:1030F0000A020A020A020A020A020A020A020A0270
:103100000A020A020A020A020A020A020A020A025F
:103110000A020A020A020A020A020A020A020A024F
:103120000A020A020A020A020A020A010A010A0142
:103130000A010A010A010A010A010A010A010A0137
:103140000A010A010A000A000A000A000A000A002D
:103150000A000A000A000A00090309030903090317
:103160000903090309030903090309030A000A0003
:103170000A000A000A000A000A000A000A000A00FF
:103180000A000A000A010A010A010A010A010A01E9
:103190000A010A010A010A010A010A010A010A00D8
:1031A0000A000A000A000A000A000A000A000903CD
:1031B00009030903090309030903090309030903AF
:1031C000090309030903090309030903090309039F
:1031D000090309030903090309030903090309038F
:1031E000090309030903090309030A000A000A0085
:1031F0000A000A000A000A000A000A000A000A007F
:103200000A000A000A000A000A000A000A000A006E
:103210000A000A000A000A000A000A000A000A005E
:103220000A000A000A000A000A000A000A000A004E
:103230000A000A000A000A000A000A000A000A003E
:103240000A000A000A000A000A000A000A000A002E
:103250000A000A000A000A000A000A000A000A001E
:103260000A000A000A000903090309030903090304
:1032700009030903090309010902090209020902F4
:1032800009020901090209010901090109010901EC
:1032900009010901090109000900090009000900E3
:1032A00009000900090009000900090009000900D6
:1032B00009000803090008030803080308030803BA
:1032C00008030803080308030803080308030803A6
:1032D0000803080308030803080308030803080396
:1032E000080308030803080308020802080208028A
:1032F0000802080208010801080108010801080184
:10330000080008000800080008000800080008007D
:10331000070307030703070307030703070307035D
:10332000070307030703070307030703070307034D
:103330000703070307030703070207020702070241
:103340000702070207020702070207010701070138
:103350000701070107010700070007000700070032
:103360000603060306030603060306030603060315
:103370000603060306030603060306030603060305
:1033800006030603060306030603060306030603F5
:1033900006030603060306030603060307000700E9
:1033A00007000700070007000700070107010701E2
:1033B00007010701070107010701070107010701CD
:1033C00007010701070107010701070107010701BD
:1033D00007010701070107010701070107010701AD
:1033E0000702070207020702070207020702070394
:1033F000070307030703070307030703070307037D
:103400000703070307030703070307030800080070
:10341000080008000800080008000800080008006C
:10342000080007030703070307030703070307034E
:10343000070307030703070307030703070307033C
:10344000070307030703070307030703070307032C
:10345000070307030703070307030703070307031C
:103460000703070307030703070308000800080012
:10347000080008000800080008000800080108010A
:1034800008010801080108010801080108010801F4
:1034900008010801080108010801080108010801E4
:1034A00008000800080008000800080008000800DC
:1034B00008000800080007030703070307030703C2
:1034C00007030703070307030703070307030703AC
:1034D000070307030703070307030703070307039C
:1034E000070307030703070307030703070307038C
:1034F000070307030703070307030703070307037C
:103500000702070207020702070207020701070175
:10351000070107010701070107000700070007006F
:10352000070007000700070006030603060306035B
:103530000603060306030603060306030603060343
:103540000603060306030603060306030603060333
:103550000603060306030603060306030603060323
:103560000603060306030603060306030603060313
:103570000603060306030603060306030603060303
:1035800006030603060306030603060306030603F3
:1035900006030603060306030603060306030603E3
:1035A00006030603060306030603060307000700D7
:1035B00007000700070007000700070007000700D3
:1035C00007000700070007000700070007010701C1
:1035D00007010701070107010701070107010701AB
:1035E000070107010701070107010701070107019B
:1035F0000701070107010701070107020702070288
:103600000702070107020702070207020702070273
:103610000702070207020702070107020701070165
:103620000702070207020702070207010701070254
:103630000702070207010702070207020703070341
:10364000070307030703070307030703070307022B
:103650000701070107020702070207010701070127
:103660000701070207010701070207020701070216
:103670000701070107010701070107020701070208
:1036800007020701070207010702070207020702F4
:1036900007020700070007000700070007000700F0
:1036A00007000700060307000603060306030603D8
:1036B00006030603060306030603060306030603C2
:1036C00006030603060306030603060306030603B2
:1036D00006030603060306030603060306030603A2
:1036E0000603060306030603060306030603060392
:1036F0000603060306030603060306030603060382
:10370000060306010603060106010602060106017C
:103710000601060106010601060106010601060171
:10372000060106010601060106020602060206025D
:10373000060206020602060206020602060106014B
:103740000602060206020602060206020602060239
:103750000602060206020602060206020602060229
:103760000602060206020602060206020602060219
:103770000600060006000600060006000600060019
:103780000600060006000600060006000600050307
:1037900005030503050305030503050305030503E9
:1037A00005030501050105010501050105010501E7
:1037B00005010501050105010501050105010501D9
:1037C00005010501050105010501050105010501C9
:1037D00005010501050205020502050205020502B3
:1037E00005020502050205020502050205020502A1
:1037F0000502050205020502050205020502050291
:10380000050205000500050205000500050005008C
:10381000050005000500050005000500050205027C
:103820000502050205020502050205020502050260
:103830000502050205020502050205020502050250
:103840000502050205020502050205020502050240
:103850000502050205020502050205020502050230
:103860000502050205020502050205020502050220
:103870000502050205020502050005000500050018
:103880000500050005000500050005000500050010
:1038900005000500050004030500040304030403F8
:1038A00004030403040304030403040304030403E0
:1038B00004010401040104010401040104010401E0
:1038C00004010401040204020402040204020402CA
:1038D00004000400040004000303030303030303C0
:1038E00003010301030103010301030203020302B5
:1038F00003020302030203020302030003000300A6
:103900000300030003000300020302030203020397
:10391000020302030203020302030203020302037F
:10392000020302030300030003000300030003007B
:10393000030003000300030003000300030203026B
:103940000300030003000300020302030203020357
:103950000203020302030201020102010201020149
:10396000020102010201020102020202020202023B
:10397000020202020202020202020200020202002B
:103980000200020002000200020002020202020221
:103990000202020202020202020202020202020207
:1039A00002020202020202020202020202020202F7
:1039B00002020202020202020202020202020202E7
:1039C00002020202020202020200020002000200DF
:1039D00002000200020002000200020002000200D7
:1039E00002000103020002000200020002000200C5
:1039F00002000200020002000200020002000200B7
:103A0000020002000200020202020202020202029C
:103A10000202020202020202020202020202020286
:103A2000020202020202020202000200020002007E
:103A3000020001030103010301010101010301036C
:103A40000103010101010101010101020102010261
:103A50000102010201020100010001000100010058
:103A60000100010001000100010000030003000348
:103A70000003000300030003000300030100000330
:103A8000000300030003000300030003000300031E
:103A9000000100010001000100020002000200001C
:103AA0000000000000000000000000000000000016
:103AB0000000000000000000010001000100010002
:103AC00001000100010001000100010001000100EE
:103AD00001000100010001000100010001000100DE
:103AE00001000100000000000100FF00FF00FB00DA
:103AF000D103D103D003D102D103D003D201D0002E
:103B0000D000D201D100D101D203D000D003D20025
:103B1000D101D200D102D300524620736F75726377
:103B20006520362047487A200D0A20416C6A617A68
:103B300020422E2076322E31200000005246207383
:103B40006F7572636520362047487A0D0A000000C1
:103B500076322E310D0A00004D487A0A000000002E
:103B600064426D200000000053572E4F464600006F
:103B70006B487A00202020002A2A2A2A2053415606
:103B8000494E47202A2A2A2A0A0000002020506C89
:103B90006561736520776169742120200000000051
:103BA0002020204E6F206368616E6765732020209F
:103BB00000000000F41400086413000864130008F7
:103BC0006413000864130008201500083615000867
:103BD0003E1500084615000864130008501500083B
:103BE00060150008701500086413000864130008CD
:103BF000641300086413000880150008901500087D
:103C000064130008641300086413000864130008B8
:103C1000A0150008AC15000864130008BA150008C8
:103C2000C2150008E2140008A8140008BE1300081A
:103C3000BE130008BE130008BE1300089814000845
:103C4000A01400085A14000870140008BE130008DD
:103C50007814000888140008D2140008BE13000865
:103C6000BE130008BE130008BE13000800140008AD
:103C700010140008BE130008BE130008BE1300088D
:103C8000BE1300082014000836140008BE130008F4
:103C9000421400084A14000852140008303132332C
:103CA00034353637383900006B487A200000000080
:103CB000487A0D0A0000000068656C700000000082
:103CC00041200000462000004D20000050203132ED
:103CD00033343536373839005200000053200000A5
:103CE00041747420000000000D0A4120787878208B
:103CF0002D20616D706C6974756465205B2B2F2DB0
:103D000064426D5D0D0A462078787878787878205E
:103D10002D206672657175656E6379205B6B487ADC
:103D20005D0D0A4D207878787878202D206D6F64AD
:103D3000756C6174696F6E205B487A5D0D0A502066
:103D4000313233343536373839202D20736176657A
:103D50002073657474696E67730D0A52202D20728A
:103D6000657365742C20532078202D206D656D6F50
:103D700072790D0A0D0A00004F4B0D0A0000000079
:103D8000556E7265636F676E697A656420636F6DE7
:103D90006D616E642E205472792068656C702E0DF2
:0C3DA0000A0000000800002000000000E5
:083DAC0060C3FF7F010000006D
:103DB4003F000000010000000000000000000000BF
:103DC40000000000000000000000000000000000EF
:103DD40000000000000000000000000000000000DF
:103DE40000000000000000000000000000000000CF
:103DF40000000000000000000000000000000000BF
:103E040000000000000000000000000000000000AE
:103E14000000000000000000ED000008C5000008DC
:107C0000808D5B000000000000000000808D5B00A4
:107C10000000000000000000808D5B0000000000FC
:107C200000000000808D5B000000000000000000EC
:107C3000808D5B000000000000000000808D5B0074
:107C40000000000000000000808D5B0000000000CC
:107C500000000000808D5B000000000000000000BC
:107C6000808D5B000000000000000000808D5B0044
:087C700000000000000000000C
:0400000508000000EF
:00000001FF
