:020000040800F2
:1000000000100020E91C0008331D0008351D000801
:1000100000000000000000000000000000000000E0
:10002000000000000000000000000000371D000874
:100030000000000000000000391D00083B1D000802
:100040003F1D0008411D0008431D0008451D000814
:10005000471D0008491D00084B1D00084D1D0008E4
:100060004F1D0008511D0008531D0008551D0008B4
:10007000571D0008591D00085B1D00085D1D000884
:100080005F1D0008611D0008631D0008651D000854
:10009000671D0008691D00086B1D00086D1D000824
:1000A0006F1D0008711D0008731D0008751D0008F4
:1000B000771D0008791D00087B1D00087D1D0008C4
:1000C0007F1D000810B5064C2378002B07D1054B87
:1000D000002B02D0044800E000BF0123237010BDB4
:1000E0006800002000000000DC3B0008044B10B555
:1000F000002B03D00349044800E000BF10BDC046F8
:10010000000000006C000020DC3B0008402292024E
:100110009A1A92467047C046174B002B00D1134BDA
:100120009D46FFF7F3FF00218B460F461348144A04
:10013000121A01F063FE0E4B002B00D098470D4BB6
:10014000002B00D098470020002104000D000D482E
:10015000002802D00C4800E000BF01F02BFE200078
:10016000290000F0EFFE01F00FFEC046000008007D
:1001700000000000000000000010002068000020C7
:100180005C0100200000000000000000F0B5234BDF
:1001900085B001AA060011CB11C210001A88028096
:1001A0009B78837034782D2C30D02B2C22D00123D7
:1001B0009C4600230027C918F51876186B460021C5
:1001C0005A1D302305E00132531E1B780131002BEC
:1001D00001D0A342F7D10B000A3B5A1E9341B8004D
:1001E000C0195B421940400001350F18AE4209D0DA
:1001F0002C78E3E7012301399C4600290CD0012328
:100200007478D7E76046784305B0F0BD0123013923
:100210005B429C460029F2D10020F5E7002000084F
:10022000F0B585B001AE32000F00144B040003CBD3
:1002300003C219883D0011809B789370002C17DB56
:1002400020000A21013501F0E3FD0028F9D12870D2
:1002500020000A2101F0C2FE735C013D20000A214A
:100260002B7001F0D5FD041EF2D1380005B0F0BDB1
:100270002D237D1C3B706442E2E7C046002000084D
:1002800010B54D4B84B001AC18682100FFF7C8FFD2
:100290002378002B0DD06A464021501D474A9BB25F
:1002A0001385D3691942FCD00130431E1B78002B03
:1002B000F5D120234021414A1385D3691942FCD04E
:1002C0003F23402113853D4AD3691942FCD02023A6
:1002D000138540223949CB691A42FCD0384B2100A2
:1002E0001868FFF79DFF2378002B0DD06A46402148
:1002F000501D324A9BB21385D3691942FCD001309C
:10030000431E1B78002BF5D16B2340212D482B4A2F
:100310009BB21385D3691942FCD00130431E1B7870
:10032000002BF5D1284B21001868FFF779FF2378BF
:10033000002B0DD06A464021501D204A9BB21385E8
:10034000D3691942FCD00130431E1B78002BF5D134
:10035000642340211D48194A9BB21385D369194271
:10036000FCD00130431E1B78002BF5D1184B210027
:100370001868FFF755FF2378002B0DD06A464021FF
:10038000501D0E4A9BB21385D3691942FCD001302F
:10039000431E1B78002BF5D1482340210D48074A06
:1003A0009BB21385D3691942FCD00130431E1B78E0
:1003B000002BF5D104B010BD5401002000380140DD
:1003C000C80000200D200008500100201520000862
:1003D0004C0100201D2000080378002B0CD0402188
:1003E000064A01309BB21385D3691942FCD0013013
:1003F000431E1B78002BF5D17047C04600380140E2
:10040000F0B5434E434834003200002342490430E3
:10041000783401E081680C301568491B4D1EA941F4
:1004200055685B180168491B4D1EA94145685B185A
:1004300091680C32491B4D1EA9415B189442E9D1C9
:10044000002B62D00121354A13680B431360D36837
:100450001942FCD113691B0652D401212F4AD368DB
:100460001942FCD1022113690B4313612C4B3E311D
:10047000536113690B431361C046284A3F39D3685F
:100480001942FCD12023D1680B4200D0D360022155
:10049000224B20201A69234F8A431A61224A20499D
:1004A0009446012266447458DD682A42FCD11D69D5
:1004B00015431D61A5B20D80C046DD682A42FCD1FE
:1004C000DD68284200D0D860DD682A42FCD1240CC7
:1004D0004C80C046DC682242FCD1DC682042FCD063
:1004E000DC68204200D0D8601C69043194431C6150
:1004F000B942D8D1802101201A690A431A61F0BD9E
:100500000A4B53600A4B5360A7E70020F7E7C04649
:10051000D4000020007C0008808D5B000020024099
:10052000007C0008787C00080084FFF72301674501
:10053000AB89EFCD80232B4A9B0291690B439361DA
:100540009022D2059169C3072DD580235B010B430F
:1005500093619022D205916983072DD580231B02D8
:100560000B4393611F4A43072DD5082193690B4321
:1005700093611C4A03072ED5102193690B439361A5
:100580000221184B9A690A439A61C046C046C04688
:10059000C0468022996992020A439A61C046C046C9
:1005A000C046C046704780235B050B439361902291
:1005B000D20591698307D1D480231B060B43936135
:1005C000084A4307D1D4802391691B030B439361ED
:1005D000044A0307D0D4802391695B030B439361E2
:1005E000CEE7C04600040048012812D001210222B3
:1005F000164B5961D8625A621A680A431A601A691E
:100600008A431A611A691142FCD01A688A431A6037
:100610007047C046C046C046C046C046C046C046F9
:10062000C046C046C046C046C046C046C046C0469A
:10063000C046C046C046C046C046C046C046C0468A
:10064000C046C046C046C046C046E1E7004401403F
:1006500007239943F0B50D00C64603401D43802390
:10066000254F00B5BA69DB031343BB618023BA6928
:100670001B041343BB61802390245B022026984611
:10068000E40512E08023BA691B041343BB610A200E
:10069000FFF7AAFF0122A3690A201343A361013EC9
:1006A000FFF7A2FF6D00002E0AD04246A369134354
:1006B000A361002DE6DA8022BB691343BB61E6E744
:1006C0008023A2695B021343A3610A20FFF78CFF1A
:1006D0004022094C0A20A3691343A361FFF784FF5A
:1006E0008023A269DB0313430A20A361FFF77CFF89
:1006F00080BCB846F0BDC04600040048802310B559
:1007000004000A4A5B0291690A200B439361FFF7D8
:100710006BFF2009FFF70EFF6420FFF765FF200045
:10072000FFF708FF6420FFF75FFF10BD00040048DB
:1007300010B5002906D0012909D02820FFF754FF61
:10074000002010BD80231843FFF7D8FFF5E7802372
:1007500040305B421843C0B2FFF7D0FFEDE7C04620
:10076000012110B504000A4A052093690B439361E7
:10077000FFF73AFF2009FFF7DDFE1E20FFF734FFE9
:100780002000FFF7D7FE1E20FFF72EFF10BDC0464A
:100790000004004810B5002104000520FFF7C8FF41
:1007A000304B30209C4206DD2F4A01309446644491
:1007B000C0B29C42F8DCFFF7D3FF2C4B30209C42A8
:1007C00006DD2B4A013094466444C0B29C42F8DCFA
:1007D000FFF7C6FF274B30209C4206DD264A01303A
:1007E00094466444C0B29C42F8DCFFF7B9FFFA2398
:1007F00030209B009C4206DB204A01309446644432
:10080000C0B29C42F8DAFFF7ABFF2E20FFF7A8FF3B
:100810003020632C04DD0130643CC0B2632CFADC70
:10082000FFF79EFF3020092C04DD01300A3CC0B2E6
:10083000092CFADCFFF794FF20003030C0B2FFF73C
:100840008FFF0F2001000E4B1A68D31719401B0FA2
:100850008918D2181040C01A0911C9B2C0B2FFF7E6
:1008600067FF10BD3F420F00C0BDF0FF9F86010033
:100870006079FEFF0F270000F0D8FFFF18FCFFFF94
:10088000C000002070B505000078002815D00124B4
:1008900006E0FFF765FF285D0134E4B200280CD0C4
:1008A0000A28F6D1B630FFF729FF2820FFF79CFE73
:1008B000285D0134E4B20028F2D170BD01220A4B58
:1008C0005A61D8625A6219681143196019699143D3
:1008D000196101211A691142FCD01A698A431A610F
:1008E0001A688A431A6070470020004010B5012042
:1008F000FFF704FF0220FFF7E1FF10BD70B50E0007
:10090000FA21C900050001F083FAFA210400C900A8
:10091000280001F063FBFA239B00994200DD0134BB
:10092000E043084BC01704409C4200DD1C00064B0E
:100930006400E05CB04202DB1E38B04200DB70BDF8
:100940003000FCE74B1900008C220008F0B5C646C9
:100950009024802300B5E405A2691B041343A3611E
:1009600080235B03050008260127984612E0102229
:100970001343A3612022A36901201343A361FFF75E
:1009800033FE8023A2699B031343013E6D08A361DC
:10099000002E06D0A3692F42E9D142461343A3613A
:1009A000E8E78022A36901201343A361FFF71CFE3F
:1009B0008023A2691B041343A36180BCB846F0BD29
:1009C000F0B5DE4645464E465746E0B500218BB0B1
:1009D0000020FFF7ADFEDB4B186899463030C0B2FF
:1009E000FFF7BEFE2020FFF7BBFE2020FFF7B8FE7A
:1009F00000210420FFF79CFE2020FFF7B1FED24B20
:100A000030201D689846D14B2C009D4206DDD04A0F
:100A1000013094466444C0B29C42F8DCFFF7A0FE6B
:100A2000CC4B30209C4206DDCB4A013094466444D6
:100A3000C0B29C42F8DCFFF793FEC84B30209C42CA
:100A400006DDC74A013094466444C0B29C42F8DCDB
:100A5000FFF786FEFA2330209B009C4206DBC14A4A
:100A6000013094466444C0B29C42F8DAFFF778FE45
:100A70002E20FFF775FE3020632C04DD0130643C2E
:100A8000C0B2632CFADCFFF76BFE3020092C04DDCA
:100A900001300A3CC0B2092CFADCFFF761FE2000ED
:100AA0003030C0B2FFF75CFEAF48FFF7EBFEAF4F50
:100AB0003B6800930933122B00D8C2E1009C002C44
:100AC00000DAB8E12B20FFF74BFE092C09DD3020BE
:100AD00001300A3CC0B2092CFADC302801D0FFF703
:100AE0003FFE20003030C0B2FFF73AFEA048FFF7CB
:100AF000C9FEA04B9B461B68191E019300D167E1FC
:100B0000964A1C0030201300914206DD944A0130C1
:100B100094466444C0B29C42F8DCFFF721FEFA23FD
:100B200030209B009C4206DB8E4A01309446644490
:100B3000C0B29C42F8DAFFF713FE2E20FFF710FE3A
:100B40003020632C04DD0130643CC0B2632CFADC3D
:100B5000FFF706FE3020092C04DD01300A3CC0B24C
:100B6000092CFADCFFF7FCFD20003030C0B2FFF7A3
:100B7000F7FD8148FFF786FE0F20010000247F4B20
:100B80001A68D31719401B0F8918D2181040C01AC1
:100B90000911C9B2C0B2FFF7CBFD794A1300234156
:100BA0009D4200DD51E10134082CF7D180231B0464
:100BB00002932B00FA21A340C90118009A4601F0C4
:100BC00027F9FA210600C901504601F007FA0B0087
:100BD000CA1707211140C91873019B1B9B009B1961
:100BE000C9105B015B18DB0023410893654BC9000A
:100BF0001940654B6548DA68F60309925A7F06404A
:100C000003929A7F0E430692DA7F19699246202258
:100C10005F4C9A5C0C4002990292212298680C4326
:100C200005905968187F079104905969985C1C6178
:100C30001E60FFF70DFD21000298FFF709FD5046E9
:100C40000999FFF705FD05990698FFF701FD07993A
:100C50000398FFF7FDFC31000498FFF7F9FCFA2137
:100C60004C4B089AC9001A60280001F0D1F8FA210B
:100C70000400C900280001F0B1F9FA239B00994251
:100C800000DD0134E043444BC01704409C4200DDCA
:100C90001C0042486400235C009A041960789A4260
:100CA00007DA9B1ADBB29B00C318D8B21B0600D52B
:100CB000CEE0FFF74BFE8023394A9B0391690B433B
:100CC000936190238021DB059869C90301439961F1
:100CD00019683448014019601168334801401160B7
:100CE0000199002900DC8AE00199632900DD76E0A2
:100CF0002E4801F08DF82E4B42105A6301389A634A
:100D00002C4AD86201219A6259611A680A431A6012
:100D10008022294B52021A604B461968274A4B0021
:100D20005B18414609689B009950D3183A685A608D
:100D30005A4612689A60C822214B52421A600BB080
:100D400040E0C04654010020C80000203F420F0090
:100D5000C0BDF0FF9F8601006079FEFF0F270000F5
:100D6000F0D8FFFF18FCFFFF2420000850010020EE
:100D7000142000084C01002038200008C00000208A
:100D8000C0C62D00F87F0000840000200080FF7F97
:100D9000FFFF8FFFD00000204B1900008C220008BD
:100DA00000040048FFEFFFFFFFFBFFFF50C3000000
:100DB00000040040BF03000000E100E0D400002078
:100DC000CC000020F0BCBB46B246A946A046F0BD10
:100DD0002648FFF757FD2648FFF754FDCCE6FA23D7
:100DE00001999B00994235DC224801F011F8224B11
:100DF000421001385A639A630722D86282E70124BD
:100E00001D490868A04308604C61802480211B486C
:100E10006402445019681A48014019601168194861
:100E200001402020116091690143916140219A693C
:100E30000A439A6170E72D20FFF792FC009B5C4209
:100E400043E62020FFF78CFC38E623050293B0E64A
:100E50007F202EE701990C4800F0DAFF064B421084
:100E600001385A639A630022D8624BE72C200008AD
:100E700034200008808D5B000004004000E100E0A9
:100E8000FFDFFFFFFFF7FFFF006CDC020121254BB6
:100E900025481A680A431A605A6802405A601A685C
:100EA000224802401A601A68214802401A605A68B3
:100EB000204802400F205A60DA6A8243DA621A6BD5
:100EC0001D4802401A635A6B8A435A6300229A6093
:100ED0001A4A103111605A6819495A605A685A60A2
:100EE0005A680A405A60A022596892030A435A601D
:100EF0008022196852040A431A60802292041968F9
:100F00001142FCD003215A688A435A605A68013959
:100F10000A435A600C2203494B681340082BFBD14B
:100F20007047C046001002400CB8FF08FFFFF6FEF5
:100F3000FFFFFBFFFFFFC0FFECFEFFFF00200240B2
:100F4000FFFFC2FFF0B5DE4657464E4645468022BB
:100F5000E0B5F84B5202196883B00A431A60802248
:100F6000920219681142FCD003215A688A435A60E0
:100F70000C22F04B59680A42FCD11A68EE490A402B
:100F80001A608022EB4B920419681142FCD15A6816
:100F9000EA491140A02292030A435A600522DA620C
:100FA0008022596852020A435A608022196852040A
:100FB0000A431A608022DF4B920419681142FCD068
:100FC00002215A68DB4D0A435A600C236A681A40B2
:100FD000082AFBD1C023902490466A69DB021343A0
:100FE0006B61E405A268D64B01271343A360D54B80
:100FF00000269A68012252429A609346AA22E1682A
:10100000D2030A43E26022682F203A432260A022E2
:101010001968D2010A431A608022216892010A43AA
:1010200022608022216A52040A4322628A222168B5
:10103000D2010A43226082222168D2050A4322603B
:1010400046221968FF320A431A6080221968120189
:101050000A4380211A601A6A490389460A43A0217B
:101060001A6222680A4322608822216A52010A43D6
:1010700022628022A169D2030A43A261E969B24ACD
:101080000A43EA61B149B24A9162D662576180224D
:10109000A96992021143A961AE4988628020CF629A
:1010A0004F61996940020143996199691E200A4381
:1010B0009A618022A16952050A438021A261A26936
:1010C00009060A43A26180228A46996912030A43EB
:1010D00049469A619A690A439A61FFF7EFFB032038
:1010E000FFF728FA0620FFF7E9FB0320FFF722FAB3
:1010F0009620FFF779FA0320FFF71CFA6420FFF728
:1011000073FA0220FFF716FA6420FFF76DFA282021
:10111000FFF7F4FA6420FFF767FA0820FFF7EEFA0A
:101120006420FFF761FA0120FFF7E8FA0220FFF7D9
:10113000C5FB0620FFF7E2FA6420FFF755FA80208E
:10114000FFF7DCFA6420FFF74FFA0E20FFF7D6FA1C
:101150006420FFF749FAFFF7C9FB7F48FFF792FBCE
:1011600000211120FFF7E4FA8023AA69DB01134371
:10117000AB617A4A7A4BFF20DA608022196812024A
:101180000A4304211A601A680A4341461A601A6821
:101190000A431A60734A18315A611A683A431A604E
:1011A0001A680A431A60704B51469846802342469B
:1011B0001B051360C622434692009B581B021B0A64
:1011C0000B4341468B508023A2691B041343A36148
:1011D0008023A2699B0313434A46A361A369134377
:1011E000A361FFF7B3FB9021EA69604B80201343B2
:1011F000EB615F4B40021A6896240A431A609E60B6
:10120000DA6830393A43DA609A695A4D0A439A618A
:10121000C0229969D2010A439A619969564AE40346
:101220000A4311219A611A6A0A431A625A465E6297
:101230009E62DA625E63C4229E635F6143469200EF
:1012400018609B58EE318B43BF390B4341468B509E
:101250004A4B4B4A4B4FDA6090464B4A1C601A612E
:1012600091464A4A5D605A619246494A9F609E6132
:10127000DA61484A06211A842222052099545146EF
:10128000FFF7E6F91420FFF719FB49460420FFF7A2
:10129000DFF941460320FFF7DBF939000220FFF7B1
:1012A000D7F929000120FFF7D3F921000020FFF72B
:1012B000CFF951460520FFF7CBF949460420FFF747
:1012C000C7F941460320FFF7C3F939000220FFF7B1
:1012D000BFF929000120FFF7BBF921000020FFF72B
:1012E000B7F92D4B2D4A19007831186810605868ED
:1012F000506098680C3390600C329942F5D1284BBD
:1013000028489846254B90241B68E40501934346E2
:10131000019A1A60214B5B680193019A224B1A6073
:10132000224B9B461D4B9B6801935B46019A1A60BA
:101330003EE0C04600100240FFFFFFFEFFFFC3FF7C
:10134000FFFFFFC300040048000100107FBB000046
:1013500000200040004401406C20000810270000DD
:1013600000380140FFFFFF0000E100E00200001034
:101370000004004001FD0020080800008400002057
:1013800003080000427800783C00886205004001B4
:101390000001020304050000007C0008D4000020C6
:1013A000C8000020B80B0000500100204C010020B4
:1013B000FFF784FAFFF79AFAFFF702FBD748FFF727
:1013C0000BF8D748FFF708F8FEF75AFFC021D54AB7
:1013D000D54BD6485360036A09061B021B0A0B4310
:1013E00003620023936007331360D14BD14E9A46BA
:1013F000D14B3568994623692F009B0500D484E0C2
:1014000023695B0500D487E02369DB0528D4032F1B
:1014100000D994E20523052233600F23D1170D0F65
:101420005019194018408918401B0911C0B2C9B29F
:10143000FFF77EF92369DB050FD4C8250120FFF7EC
:101440003DFA802223691201134200D1C4E12369CD
:10145000013DDB0501D4002DF0D10A20FFF72EFA63
:101460002269802310001B0118401A4224D13368DE
:10147000591E03D49A1E032A00D9A0E2002130602D
:101480000F2008400911C9B2FFF752F923691B0563
:101490000FD4C8250120FFF711FA802223695200DA
:1014A000134200D1C0E12369013D1B0501D4002D89
:1014B000F0D10A20FFF702FA53461B68002B00D038
:1014C000D9E143461D684B461B68002B00D005E25E
:1014D00037689A4B1868A84210D0994B1B68002BAC
:1014E00000DC15E2964A013B1360002B06D1280070
:1014F000FFF750F96423924A5B4213600A20FFF71A
:10150000DDF923699B0500D57AE71C2F00D94FE14F
:101510008C4ABB00D3589F461C2F00D984E08A4ACE
:10152000BB00D3589F465B461B685D1E5B4602E0CE
:101530005B461D680A3D1D6043461868834B196869
:10154000002803DA0023424600201360FFF7D6F993
:101550007E4B1860002D02DA00235A461360FFF715
:101560002FFAFEF78DFE8022D20023691342FCD0B1
:101570000A20FFF7A3F947E75B461D68643DDAE7F9
:101580005B46734A1B68944663441D005B46D2E782
:101590005B46704A1B68944663441D005B46CAE77D
:1015A0006A4B1B680193591E434618685B461D68C9
:1015B000C6E7664B1B6819000193434618685B46F3
:1015C0000A391D68BCE743461B68581E434602E0C3
:1015D000434618680A3818605C4B19685B461D68FA
:1015E000AEE743465C4A1B68944663441800434692
:1015F000F1E74346594A1B68F6E7594B1B680193CC
:101600005A1E00D5F0E1564B1A6053009B18554AFC
:101610009B00D05842461060524A944663449D68ED
:1016200059685B461D608BE743461868474B19684D
:101630005B461D6884E74346454A1B68D4E743463A
:10164000444A1B68D0E7434618686438C3E75B46E2
:101650001B685D1C5B4602E05B461D680A351D6029
:1016600043461868394B19683F4B984202DD4246A1
:1016700018001360FFF742F9344B18603B4B9D4252
:1016800001DD5A461360FFF79BF9FEF7F9FD802252
:10169000920023691342FCD00A20FFF70FF9AFE64E
:1016A0005B461D686435DAE7FA225B469200944691
:1016B0001B6863441D005B46D1E75B462C4A1B68F0
:1016C000944663441D005B46C9E7204B1B680193A9
:1016D000591C434618685B461D68C5E71B4B1B68D1
:1016E00019000193434618685B460A311D68BBE741
:1016F00043461B68581C434602E0434618680A30BC
:101700001860124B19685B461D68ADE74346194ADD
:101710001B689446634418004346F1E79020000894
:10172000A420000810E000E0FF3D490000ED00E0CB
:10173000C4000020C000002058010020D00000207C
:10174000CC000020A421000818220008500100202D
:1017500018FCFFFFF0D8FFFF6079FEFFC0BDF0FF6F
:1017600054010020D4000020C0CF6A0050C3000004
:1017700010270000A08601004346CB4A1B68C8E73B
:10178000CA4B1B685A1C0193092A00DD27E1C74B8D
:101790001A6053009B18C64A9B00D05842461060FE
:1017A000C34A944663449D6859685B461D605BE785
:1017B00043461868BF4B19685B461D6854E74346AB
:1017C000FA221B689200A4E74346BB4A1B68A0E7C5
:1017D00043461868643093E7002100203760FEF725
:1017E000A7FFB648FFF74EF8FEF70AFE002800D123
:1017F000A1E0B348FFF746F8B248FFF75FF8FFF7FC
:1018000075F8FFF7DDF880235B008021226909016C
:101810000A42FAD022691A42F7D022691A4200D04D
:101820001BE601256D4209E6002100203760FEF726
:101830007FFFA248FFF726F8FEF7E2FD002876D0EA
:101840009F48FFF71FF89F48FFF738F8FFF74EF85B
:10185000FFF7B6F880231B0122691A42FCD08021D1
:10186000226949000A42F7D022691A4200D020E6D4
:1018700001256D420EE6944B1B680193002B79D035
:10188000924B1B78682B00D0B3E065238F49904AB8
:1018900000E0537848780131013298427FD1002B23
:1018A000F7D10D2340208B4A8B499BB20B85CB6926
:1018B0001842FCD00132531E1B78002BF5D1434651
:1018C0001D680023804A1360FFF77AF80023524610
:1018D00013604B461B68002B00D1F9E50021032063
:1018E000FEF726FF3F20FEF73BFF0F200100376881
:1018F000FB1719401B0FFA181040C919C01A09111B
:10190000C9B2C0B2FEF714FF00234A461360E0E5F7
:10191000002B1BD0714A01331360002B00D0EDE582
:10192000FEF738FF96236D4A5B001360E6E56C48CE
:10193000FEF7A8FF87E76A48FEF7A4FF5CE77A1C7A
:10194000082F1AD10A230A22336066E59623634AD8
:101950005B001360D2E555234020624A5E499BB28A
:101960000B85CB690342FCD053780132002BF6D1B2
:10197000554A136043461D68A8E73B000C3B3260A4
:10198000032B03D811231122336046E53B00123BA1
:10199000032B00D9BAE01723172233603DE5002B53
:1019A00000D17EE7504A494B19781578A94200D0FA
:1019B000C3E0002900D1C0E001330132F4E7316017
:1019C000092903D108230139336059E51A000E3A79
:1019D000032A00D9A9E00C230C21336050E5092328
:1019E000324A13600922D4E60023304A13603A00D9
:1019F0000BE6412B2AD12022344B3C4900E04A78A7
:101A000058780133013190421DD1002AF7D12F4B74
:101A10000321981CFEF7BAFB43461D68010028000D
:101A2000FEF76CFF234B402118604F2330482A4AB1
:101A30009BB21385D3691942FCD00130431E1B7839
:101A4000002BF5D13DE7002AE1D0ABE7462BA9D129
:101A500020231E49274A00E053784878013101329B
:101A600098424DD1002BF7D1184B0721981CFEF757
:101A70008DFB214B984213DC002844DA00234246B8
:101A800013604F2340211A48134A9BB21385D36930
:101A90001942FCD00130431E1B78002BF5D10EE714
:101AA0004246164B1360ECE740420F005401002001
:101AB000D40000205001002010270000AC200008B6
:101AC000C0200008B80B0000A8000020AC000020D7
:101AD0003C200008E920000800380140CC0000202C
:101AE000D4200008802100084C2000084420000871
:101AF0007921000848200008C0CF6A00808D5B0073
:101B0000002BB1D04EE743461860BAE7192A04D13A
:101B10001A2301210A2033608AE41C2A00DC7CE4B9
:101B20001C2301210C20336082E4143B032B1ED8BC
:101B30001223012102203360A6E4002D24D15D4B45
:101B40000521981CFEF722FB5B4B984217DD5A4695
:101B500013604F234020594A59499BB20B85CB69EA
:101B60001842FCD053780132002BF6D1A7E6192990
:101B700000D085E4182301210820336084E45B460B
:101B800000281EDA1D60E4E74E4A4A4B03E00028B5
:101B900005D001330132187811788842F7D0002936
:101BA00011D1FEF72DFC4F234020444A44499BB2FB
:101BB0000B85CB690342FCD053780132002BF6D160
:101BC0007DE61860C5E7404A3A4B1878117888429C
:101BD00004D1002802D001330132F6E7002914D1E4
:101BE0004F224020354B364992B20A85CA690242DB
:101BF000FCD05A780133002AF6D1BFF34F8F334B14
:101C0000334ADA60BFF34F8FFEE7324A294B187828
:101C10001178884204D1002802D001330132F6E75E
:101C2000002923D1234B0131981CFEF7AFFA2A4B30
:101C30002A4A18600C234343D55842461560274A68
:101C40004020944663445968254A9B6811605A466F
:101C500013604F23194A1A499BB20B85CB69034283
:101C6000FCD053780132002BF6D12AE61D4A114BE5
:101C700018781178884204D1002802D0013301324B
:101C8000F6E7002900D066E60A4B0331181DFEF77F
:101C90007DFAC0B2FEF75AFE4F234020074A08499A
:101CA0009BB20B85CB690342FCD053780132002BE9
:101CB000F6D15FE6AC00002050C300007821000898
:101CC00000380140502000085C20000800ED00E0D2
:101CD0000400FA056020000854010020D400002010
:101CE00050010020642000080749084A084B9B1A4D
:101CF00005DD00240859105104349C42FADB0548E4
:101D00008047054800470000E83B0008000000202D
:101D1000680000208D0E0008190100081849194AB2
:101D2000002301E00B6004319142FBD3FFF70AF975
:101D3000FEE7FEE7FEE7FEE7FEE7FEE7FEE7FEE77B
:101D4000FEE7FEE7FEE7FEE7FEE7FEE7FEE7FEE76B
:101D5000FEE7FEE7FEE7FEE7FEE7FEE7FEE7FEE75B
:101D6000FEE7FEE7FEE7FEE7FEE7FEE7FEE7FEE74B
:101D7000FEE7FEE7FEE7FEE7FEE7FEE7FEE7FEE73B
:101D8000680000205C010020084B10B50400002B07
:101D900002D0002100E000BF054B1868836A002BC9
:101DA00000D09847200000F031F8C0460000000045
:101DB000D83B000870B500260C4D0D4C641BA410D8
:101DC000A64209D1002600F00FF90A4D0A4C641B07
:101DD000A410A64205D170BDB300EB589847013658
:101DE000EEE7B300EB5898470136F2E760000020B9
:101DF00060000020600000206400002003008218C2
:101E0000934200D1704719700133F9E7FEE7C046ED
:101E100003460B437FD4002243088B4274D303094B
:101E20008B425FD3030A8B4244D3030B8B4228D3EC
:101E3000030C8B420DD3FF22090212BA030C8B4212
:101E400002D31212090265D0030B8B4219D300E0B2
:101E5000090AC30B8B4201D3CB03C01A5241830B37
:101E60008B4201D38B03C01A5241430B8B4201D3E7
:101E70004B03C01A5241030B8B4201D30B03C01A10
:101E80005241C30A8B4201D3CB02C01A5241830A8A
:101E90008B4201D38B02C01A5241430A8B4201D3B9
:101EA0004B02C01A5241030A8B4201D30B02C01AE3
:101EB0005241CDD2C3098B4201D3CB01C01A52414A
:101EC00083098B4201D38B01C01A524143098B42D3
:101ED00001D34B01C01A524103098B4201D30B01BC
:101EE000C01A5241C3088B4201D3CB00C01A5241E1
:101EF00083088B4201D38B00C01A524143088B42A6
:101F000001D34B00C01A5241411A00D2014652413E
:101F1000104670475DE0CA0F00D04942031000D35D
:101F20004042534000229C4603098B422DD3030AB2
:101F30008B4212D3FC22890112BA030A8B420CD3C2
:101F4000890192118B4208D3890192118B4204D3EB
:101F500089013AD0921100E08909C3098B4201D36B
:101F6000CB01C01A524183098B4201D38B01C01AA5
:101F7000524143098B4201D34B01C01A524103091C
:101F80008B4201D30B01C01A5241C3088B4201D3CB
:101F9000CB00C01A524183088B4201D38B00C01A78
:101FA0005241D9D243088B4201D34B00C01A52414F
:101FB000411A00D20146634652415B10104601D3DC
:101FC0004042002B00D54942704763465B1000D366
:101FD000404201B5002000F005F802BD0029F8D00C
:101FE00016E770477047C046F8B5C046F8BC08BC55
:101FF0009E467047F8B5C046F8BC08BC9E46704780
:102000003031323334353637383900006B487A2076
:102010000000000064426D2000000000487A0D0AB4
:10202000000000004D487A0A0000000053572E4F70
:1020300046460000202020006B487A0068656C70DE
:102040000000000041200000462000004D2000005C
:1020500050203132333435363738390052000000E1
:102060005320000041747420000000005246207389
:102070006F7572636520362047487A200D0A20412B
:102080006C6A617A20422E2076322E3120000000C8
:10209000524620736F7572636520362047487A0D6B
:1020A0000A00000076322E310D0A00002A2A2A2A60
:1020B00020534156494E47202A2A2A2A0A00000066
:1020C0002020506C65617365207761697421202040
:1020D000000000002020204E6F206368616E67655D
:1020E00073202020000000000D0A4120787878201D
:1020F0002D20616D706C6974756465205B2B2F2DCC
:1021000064426D5D0D0A462078787878787878207A
:102110002D206672657175656E6379205B6B487AF8
:102120005D0D0A4D207878787878202D206D6F64C9
:10213000756C6174696F6E205B487A5D0D0A502082
:10214000313233343536373839202D207361766596
:102150002073657474696E67730D0A52202D2072A6
:10216000657365742C20532078202D206D656D6F6C
:1021700072790D0A0D0A00004F4B0D0A0000000095
:10218000556E7265636F676E697A656420636F6D03
:102190006D616E642E205472792068656C702E0D0E
:1021A0000A00000080170008B0170008B0170008E8
:1021B000B0170008B0170008781700080C170008BF
:1021C000C8170008BE170008B0170008D01700088D
:1021D000FA160008F0160008B0170008B01700083B
:1021E000B0170008B0170008DC160008CA1600086F
:1021F000B0170008B0170008B0170008B0170008A3
:10220000BA160008A8160008B0170008A0160008A3
:10221000581600084E160008FA150008281600087F
:10222000281600082816000828160008F2150008CD
:10223000E21500083E1600083616000828160008A9
:1022400046160008D0150008C61500082816000814
:10225000281600082816000828160008B2150008DD
:10226000A0150008281600082816000828160008DF
:102270002816000890150008801500082816000888
:10228000781500083015000826150008040305031A
:1022900007030803080309030A030B000B030C00E0
:1022A0000C030C030D010D030D030E010E020E03B2
:1022B0000E030E030F010F010F020F020F030F0396
:1022C0000F030F030F030F03100010001000100185
:1022D0001001100110011001100110011001100176
:1022E0001001100110011001100110011001100166
:1022F0001001100110011001100110011001100156
:102300001001100110011001100110011001100145
:102310001001100110011001100110011001100135
:102320001001100110011001100110011001100125
:102330001001100110011001100110011001100115
:102340001001100110011001100110011001100105
:1023500010011001100110011001100110011001F5
:1023600010011001100110011001100110011001E5
:1023700010011001100110011001100110011001D5
:1023800010011001100110011001100110011001C5
:1023900010011001100110011001100110011001B5
:1023A00010011001100110011001100110011001A5
:1023B0001001100110011001100110011001100195
:1023C0001001100110011001100110021002100282
:1023D000100210021002100210021002100210026D
:1023E0001002100210021002100210011001100160
:1023F0001001100110011001100110011001100155
:102400001001100110011001100110011001100144
:10241000100010001000100010001000100010013B
:102420001001100110011001100110011001100124
:102430001001100110011001100110011001100114
:102440001001100110011001100110011001100104
:1024500010011001100110011001100110011001F4
:1024600010011001100110011001100110011001E4
:1024700010011001100110011001100110011001D4
:1024800010011001100110011001100110011001C4
:1024900010011001100110011001100110011001B4
:1024A00010011001100110011001100110011001A4
:1024B0001001100110011001100110011001100194
:1024C0001001100110011001100110011000100185
:1024D000100010001000100010001000100010007C
:1024E000100010001000100010001000100010006C
:1024F0001000100010001000100110011001100158
:102500001001100110011001100110011001100143
:102510001001100110011001100110011001100133
:102520001001100110011001100110011002100221
:102530001002100210011001100110011001100111
:102540001001100110011001100110011001100103
:1025500010011001100110011001100110011001F3
:1025600010021002100210021002100210021002DB
:1025700010021002100210021002100210031003C9
:1025800010031002100310031003100210021002B7
:1025900010021002100210021002100210021002AB
:1025A00010011001100110011001100110011001A3
:1025B000100110011001100210021002100210028E
:1025C000100210021002100210021002100210027B
:1025D000100210021002100210021002100210026B
:1025E0001002100210021003100310031003100356
:1025F0001003100310031003100310031003100343
:102600001003100310031002100210021002100237
:10261000100210021002100210021002100210022A
:10262000100210021002100210021002100210021A
:102630001002100210021002100210031003100307
:1026400010031003100310031003100310031003F2
:1026500010031003100310031003100310031003E2
:1026600010031003100310031003100310031003D2
:1026700010031003100310031003100310031003C2
:1026800010021002100210021002100210021003B9
:1026900010021002100210021002100210031002A9
:1026A0001003100310031003100310031003100392
:1026B0001003100310031003100310031003100382
:1026C0001003100310031003100310021002100275
:1026D000100210021002100210021002100210026A
:1026E0001002100210021002100210031003100357
:1026F0001003100310031003100310031003100342
:102700001003100310031003100310031003100331
:102710001003100310031003100310031003100321
:102720001003100310031003100310031003100311
:102730001003100310031003100310031003100301
:1027400010021002100210031002100210021002F8
:1027500010021002100210021002100210021002E9
:1027600010021002100210021002100310031003D6
:1027700010031003100310031003100310031003C1
:1027800010031003100310031003100310031003B1
:1027900010031003100310031003100310031003A1
:1027A0001003100310031003100310031003100391
:1027B0001003100310031003100310031003100381
:1027C0001003100310031003100310031003100371
:1027D0001003100310031003100310031003100361
:1027E0001003100310031003100310031003100351
:1027F0001003100310031003100310031003100341
:102800001003100310031003100310031003100330
:102810001003100310031003100310031003100320
:102820001003100310031003100310031003100310
:102830001003100310031003100310031003100300
:1028400010031003100310031003100310031003F0
:1028500010031003100310031003100310031003E0
:1028600010031003100310031003100310031003D0
:1028700010031003100310031003100310031003C0
:1028800010031003100310031003100310031003B0
:1028900010031003100310031003100310031003A0
:1028A0001003100310031003100310031003100390
:1028B0001003100310031003100310031003100380
:1028C0001003100310031003100310031003100370
:1028D0001003100310031003100310031003100360
:1028E0001003100310031003100310031003100350
:1028F0001003100310031003100310031003100340
:10290000100311001100110011001100110011003D
:10291000110011001100110011001100110011002F
:10292000110011001100110011001100110011001F
:10293000110011001100110011001100110011000F
:1029400011001100110011001100110011001100FF
:1029500011001100110011001100110011001100EF
:1029600011001100110011001100110011001100DF
:1029700011001100110011001100110011001100CF
:1029800011001003100310031003100310031003B1
:10299000100310031003100310031003100310039F
:1029A000100310031003100310031003100310038F
:1029B000100310031003100310031003100310037F
:1029C0001003100310031003110010031100110075
:1029D000110011001100110011001100110011006F
:1029E000110011001100110011001100110010035D
:1029F000100310031003100310031003100310033F
:102A0000100310031003100310031003100310032E
:102A1000100310031003100310031003100310031E
:102A2000100310031003100310031003100310030E
:102A30001003100310031003100311001100110004
:102A400011001100110011001101110111011101FA
:102A500011011101110111011101110111011101E6
:102A600011011101110111011101110111011101D6
:102A700011011101110111011101110111011101C6
:102A800011011101110111011101110111011101B6
:102A900011011101110111011101110111011101A6
:102AA0001101110111011101110111011101110196
:102AB0001101110111011101110011011101110187
:102AC0001101110111011101110111011101110176
:102AD0001101110111011102110211021102110261
:102AE0001102110211021101110111011101110153
:102AF0001101110111011101110111011101110146
:102B00001101110111011101110111011100110037
:102B10001100110010031003100310031003100321
:102B20001003100210021002100210021002100214
:102B30001002100210021002100210021002100205
:102B400010021002100310031003100310031003EF
:102B500010031003100210021002100210021002E3
:102B600010021002100210021002100210021002D5
:102B700010021002100210021002100210031002C4
:102B800010031003100310031003100310031003AD
:102B9000100310031003100310031003100310039D
:102BA0001003100311001100110011001100110099
:102BB000100311001003100310031003100310037F
:102BC000100310031003100310031003100310036D
:102BD000100310031003100310031003100310035D
:102BE0001003100310031002100210021002100351
:102BF0001002100210021002100210031003100342
:102C0000100210031003100310031003100310032D
:102C1000100310031003100310031003100310031C
:102C2000100310031003100310031003100310030C
:102C300010031003100310031003100310031003FC
:102C400010031003100310031003100310031003EC
:102C500010031003100310031003100310031003DC
:102C600010031003100310031003100310031003CC
:102C700010021002100210021002100210021002C4
:102C800010021002100210021002100210021002B4
:102C900010021002100110011001100110011001AA
:102CA000100110011001100110011001100110019C
:102CB000100110011001100110011001100110008D
:102CC0001000100010001000100010001000100183
:102CD000100110011001100110011001100110016C
:102CE0001001100010001000100010001000100063
:102CF0001000100010001000100010001000100054
:102D00000F030F030F030F030F030F030F030F0333
:102D10000F030F030F030F030F030F030F030F0323
:102D20000F030F030F030F030F030F030F020F0215
:102D30000F020F020F020F020F020F020F020F020B
:102D40000F020F020F020F020F020F030F030F03F8
:102D50000F030F030F030F020F020F020F020F02E8
:102D60000F020F020F020F020F020F020F020F02DB
:102D70000F020F020F020F020F020F020F020F02CB
:102D80000F010F010F010F020F010F020F010F01C1
:102D90000F010F020F020F020F020F020F020F02AC
:102DA0000F020F020F020F020F020F020F020F029B
:102DB0000F020F020F020F020F020F020F020F028B
:102DC0000F020F020F020F020F020F020F020F027B
:102DD0000F020F020F020F020F020F020F020F026B
:102DE0000F020F020F020F020F020F020F020F025B
:102DF0000F020F020F020F020F020F020F020F024B
:102E00000F020F020F020F020F020F020F020F023A
:102E10000F020F020F020F020F020F020F020F022A
:102E20000F020F020F020F020F020F020F020F021A
:102E30000F020F020F020F020F020F020F020F020A
:102E40000F020F020F020F020F020F020F010F01FC
:102E50000F010F010F010F010F010F010F010F01F2
:102E60000F010F010F010F010F010F010F000F00E4
:102E70000F000F000F010F010F010F010F010F01D4
:102E80000F010F000F000F010F010F010F010F00C5
:102E90000F000F000F000F000F000F000F000F00BA
:102EA0000F000F000F000F000F000F000F000F00AA
:102EB0000F000F000F000F000F000F000F000F009A
:102EC0000F000F000F000F000F000F000F000F008A
:102ED0000F000F000F000F000E030E030E030E0372
:102EE0000E030E030E030E030E030E030E030E035A
:102EF0000E030E030E030E030E020E020E020E024E
:102F00000E020E020E020E020E020E010E010E0144
:102F10000E010E010E010E010E010E010E010E0139
:102F20000E010E010E010E010E000E000E000E002D
:102F30000E000E000E000E000E000E000E000E0021
:102F40000E000E000E000E000E000E000E000E0011
:102F50000E000E000E000D030E000D030D030D03F9
:102F60000D030D030D030D020D020D020D020D02E6
:102F70000D020D020D020D020D020D020D020D02D9
:102F80000D020D020D020D020D020D020D020D02C9
:102F90000D020D020D020D020D020D020D020D02B9
:102FA0000D020D020D020D020D020D020D010D01AB
:102FB0000D010D010D010D010D010D010D010D01A1
:102FC0000D010D010D010D010D010D010D000D0093
:102FD0000D000D000D000D000D000D000D000D0089
:102FE0000D000D000D000D000D000D000D000D0079
:102FF0000D000D000D000D000D000D000D000D0069
:103000000D000D000D000D000D000D000D000D0058
:103010000D000D000D000D000D000D000C030C0344
:103020000C030C030C030C030C030C030C030C0328
:103030000C030C030C030C030C030C030C030C0318
:103040000C030C030C030C030C030C030C030C0308
:103050000C030C030C020C020C020C020C020C02FE
:103060000C020C020C020C020C020C020C020C02F0
:103070000C020C020C020C020C020C020C020C02E0
:103080000C020C020C010C010C010C010C010C01D6
:103090000C010C010C010C010C010C010C010C01C8
:1030A0000C010C010C010C010C010C010C010C01B8
:1030B0000C010C010C010C010C010C010C010C01A8
:1030C0000C010C010C010C010C010C010C010C0198
:1030D0000C010C010C010C010C010C010C010C0188
:1030E0000C000C000C000C000C000C000C000C0080
:1030F0000C000C000C000C000C000C000C000C0070
:103100000C000C000C000C000C000C000C000C005F
:103110000C000C000C000C000C000C000C000C004F
:103120000C000C000B030B030B030B030B030B0333
:103130000B030B030B030B030B030B030B030B031F
:103140000B030B030B030B030B030B030B030B030F
:103150000B030B030B020B020B020B020B020B0205
:103160000B010B010B010B020B020B020B020B02FA
:103170000B020B020B020B010B010B010B010B01EC
:103180000B000B000B000B000B000B000B000B00E7
:103190000A030A030A030A030A030A030A030A03C7
:1031A0000A030A030A020A030A020A020A020A02BC
:1031B0000A020A020A020A020A020A020A020A02AF
:1031C0000A020A020A020A020A020A020A020A029F
:1031D0000A020A020A020A020A020A020A020A028F
:1031E0000A020A020A020A020A020A010A010A0182
:1031F0000A010A010A010A010A010A010A010A0177
:103200000A010A010A000A000A000A000A000A006C
:103210000A000A000A000A00090309030903090356
:103220000903090309030903090309030A000A0042
:103230000A000A000A000A000A000A000A000A003E
:103240000A000A000A010A010A010A010A010A0128
:103250000A010A010A010A010A010A010A010A0017
:103260000A000A000A000A000A000A000A0009030C
:1032700009030903090309030903090309030903EE
:1032800009030903090309030903090309030903DE
:1032900009030903090309030903090309030903CE
:1032A000090309030903090309030A000A000A00C4
:1032B0000A000A000A000A000A000A000A000A00BE
:1032C0000A000A000A000A000A000A000A000A00AE
:1032D0000A000A000A000A000A000A000A000A009E
:1032E0000A000A000A000A000A000A000A000A008E
:1032F0000A000A000A000A000A000A000A000A007E
:103300000A000A000A000A000A000A000A000A006D
:103310000A000A000A000A000A000A000A000A005D
:103320000A000A000A000903090309030903090343
:103330000903090309030901090209020902090233
:10334000090209010902090109010901090109012B
:103350000901090109010900090009000900090022
:103360000900090009000900090009000900090015
:1033700009000803090008030803080308030803F9
:1033800008030803080308030803080308030803E5
:1033900008030803080308030803080308030803D5
:1033A00008030803080308030802080208020802C9
:1033B00008020802080108010801080108010801C3
:1033C00008000800080008000800080008000800BD
:1033D000070307030703070307030703070307039D
:1033E000070307030703070307030703070307038D
:1033F0000703070307030703070207020702070281
:103400000702070207020702070207010701070177
:103410000701070107010700070007000700070071
:103420000603060306030603060306030603060354
:103430000603060306030603060306030603060344
:103440000603060306030603060306030603060334
:103450000603060306030603060306030700070028
:103460000700070007000700070007010701070121
:10347000070107010701070107010701070107010C
:1034800007010701070107010701070107010701FC
:1034900007010701070107010701070107010701EC
:1034A00007020702070207020702070207020703D3
:1034B00007030703070307030703070307030703BC
:1034C00007030703070307030703070308000800B0
:1034D00008000800080008000800080008000800AC
:1034E000080007030703070307030703070307038E
:1034F000070307030703070307030703070307037C
:10350000070307030703070307030703070307036B
:10351000070307030703070307030703070307035B
:103520000703070307030703070308000800080051
:103530000800080008000800080008000801080149
:103540000801080108010801080108010801080133
:103550000801080108010801080108010801080123
:10356000080008000800080008000800080008001B
:103570000800080008000703070307030703070301
:1035800007030703070307030703070307030703EB
:1035900007030703070307030703070307030703DB
:1035A00007030703070307030703070307030703CB
:1035B00007030703070307030703070307030703BB
:1035C00007020702070207020702070207010701B5
:1035D00007010701070107010700070007000700AF
:1035E000070007000700070006030603060306039B
:1035F0000603060306030603060306030603060383
:103600000603060306030603060306030603060372
:103610000603060306030603060306030603060362
:103620000603060306030603060306030603060352
:103630000603060306030603060306030603060342
:103640000603060306030603060306030603060332
:103650000603060306030603060306030603060322
:103660000603060306030603060306030700070016
:103670000700070007000700070007000700070012
:103680000700070007000700070007000701070100
:1036900007010701070107010701070107010701EA
:1036A00007010701070107010701070107010701DA
:1036B00007010701070107010701070207020702C7
:1036C00007020701070207020702070207020702B3
:1036D00007020702070207020701070207010701A5
:1036E0000702070207020702070207010701070294
:1036F0000702070207010702070207020703070381
:10370000070307030703070307030703070307026A
:103710000701070107020702070207010701070166
:103720000701070207010701070207020701070255
:103730000701070107010701070107020701070247
:103740000702070107020701070207020702070233
:10375000070207000700070007000700070007002F
:103760000700070006030700060306030603060317
:103770000603060306030603060306030603060301
:1037800006030603060306030603060306030603F1
:1037900006030603060306030603060306030603E1
:1037A00006030603060306030603060306030603D1
:1037B00006030603060306030603060306030603C1
:1037C00006030601060306010601060206010601BC
:1037D00006010601060106010601060106010601B1
:1037E000060106010601060106020602060206029D
:1037F000060206020602060206020602060106018B
:103800000602060206020602060206020602060278
:103810000602060206020602060206020602060268
:103820000602060206020602060206020602060258
:103830000600060006000600060006000600060058
:103840000600060006000600060006000600050346
:103850000503050305030503050305030503050328
:103860000503050105010501050105010501050126
:103870000501050105010501050105010501050118
:103880000501050105010501050105010501050108
:1038900005010501050205020502050205020502F2
:1038A00005020502050205020502050205020502E0
:1038B00005020502050205020502050205020502D0
:1038C00005020500050005020500050005000500CC
:1038D00005000500050005000500050005020502BC
:1038E00005020502050205020502050205020502A0
:1038F0000502050205020502050205020502050290
:10390000050205020502050205020502050205027F
:10391000050205020502050205020502050205026F
:10392000050205020502050205020502050205025F
:103930000502050205020502050005000500050057
:10394000050005000500050005000500050005004F
:103950000500050005000403050004030403040337
:10396000040304030403040304030403040304031F
:10397000040104010401040104010401040104011F
:103980000401040104020402040204020402040209
:1039900004000400040004000303030303030303FF
:1039A00003010301030103010301030203020302F4
:1039B00003020302030203020302030003000300E5
:1039C00003000300030003000203020302030203D7
:1039D00002030203020302030203020302030203BF
:1039E00002030203030003000300030003000300BB
:1039F00003000300030003000300030003020302AB
:103A00000300030003000300020302030203020396
:103A10000203020302030201020102010201020188
:103A2000020102010201020102020202020202027A
:103A3000020202020202020202020200020202006A
:103A40000200020002000200020002020202020260
:103A50000202020202020202020202020202020246
:103A60000202020202020202020202020202020236
:103A70000202020202020202020202020202020226
:103A8000020202020202020202000200020002001E
:103A90000200020002000200020002000200020016
:103AA0000200010302000200020002000200020004
:103AB00002000200020002000200020002000200F6
:103AC00002000200020002020202020202020202DC
:103AD00002020202020202020202020202020202C6
:103AE00002020202020202020200020002000200BE
:103AF00002000103010301030101010101030103AC
:103B000001030101010101010101010201020102A0
:103B10000102010201020100010001000100010097
:103B20000100010001000100010000030003000387
:103B3000000300030003000300030003010000036F
:103B4000000300030003000300030003000300035D
:103B5000000100010001000100020002000200005B
:103B60000000000000000000000000000000000055
:103B70000000000000000000010001000100010041
:103B8000010001000100010001000100010001002D
:103B9000010001000100010001000100010001001D
:103BA00001000100000000000100FF00FF00FB0019
:103BB000D103D103D003D102D103D003D201D0006D
:103BC000D000D201D100D101D203D000D003D20065
:103BD000D101D200D102D30000000020000000007B
:083BE0002CC5FF7F010000006D
:103BE80000000000000000000000000000000000CD
:103BF80000000000000000000000000000000000BD
:103C080000000000000000000000000000000000AC
:103C1800000000000000000000000000000000009C
:103C2800000000000000000000000000000000008C
:103C3800000000000000000000000000000000007C
:083C4800ED000008C5000008B2
:107C0000808D5B000000000000000000808D5B00A4
:107C10000000000000000000808D5B0000000000FC
:107C200000000000808D5B000000000000000000EC
:107C3000808D5B000000000000000000808D5B0074
:107C40000000000000000000808D5B0000000000CC
:107C500000000000808D5B000000000000000000BC
:107C6000808D5B000000000000000000808D5B0044
:087C700000000000000000000C
:0400000508000000EF
:00000001FF
