:020000040800F2
:10000000001000200D260008572600085110000897
:1000100000000000000000000000000000000000E0
:100020000000000000000000000000005B26000847
:1000300000000000000000005D26000859100008C4
:100040006326000865260008672600086926000860
:100050006B2600086D2600086F2600087126000830
:100060007326000875260008772600087926000800
:100070007B2600087D2600087F26000881260008D0
:10008000AD25000885260008872600088926000877
:100090008B2600088D2600088F2600089126000870
:1000A000932600089526000897260008A11000084E
:1000B0009B2600089D2600089F260008A126000810
:1000C000A326000810B5064C2378002B07D1054B5A
:1000D000002B02D0044800E000BF0123237010BDB4
:1000E0007000002000000000D44C0008044B10B544
:1000F000002B03D00349044800E000BF10BDC046F8
:100100000000000074000020D44C0008402292023D
:100110009A1A92467047C046174B002B00D1134BDA
:100120009D46FFF7F3FF00218B460F461348144A04
:10013000121A02F0C7FF0E4B002B00D098470D4B50
:10014000002B00D098470020002104000D000D482E
:10015000002802D00C4800E000BF02F08FFF200012
:10016000290000F0E5FD02F073FFC0460000080022
:1001700000000000000000000010002070000020BF
:100180006C010020000000000000000080B584B079
:1001900000AF0200FB1D1A709023DB059A699023C3
:1001A000DB05802109040A439A610023FB6032E0E9
:1001B000FB1D1B780122134008D09023DB059A69B0
:1001C0009023DB0510210A439A6108E09023DB05A8
:1001D0009A699023DB05802149030A439A619023A1
:1001E000DB059A699023DB0520210A439A61FB1DF8
:1001F000FA1D127852081A70012000F087F9902336
:10020000DB059A699023DB05802189030A439A6103
:10021000FB680133FB60FB68072BC9DD9023DB051E
:100220009A699023DB0580210A439A61012000F03E
:100230006DF99023DB059A699023DB058021090481
:100240000A439A61C046BD4604B080BD80B500AF88
:100250009023DB059A699023DB05802109040A437A
:100260009A619023DB059A699023DB05802189033D
:100270000A439A619023DB059A699023DB0580216C
:1002800049030A439A61FF20FFF780FFC046BD463D
:1002900080BD000080B584B000AF7860FA23DB0039
:1002A0001900786802F0E8FD0300FB60FA23DA0029
:1002B0007B681100180002F0C5FE0B00BB60FA233A
:1002C000DB0000D501335B101A00BB68934202DDEE
:1002D000FB680133FB60FB68084A934201DD074B72
:1002E000FB60FB68002B01DA0023FB60044BFA681B
:1002F0005200D35C1800BD4604B080BD4B1900000D
:10030000F030000880B584B000AF7860FA23DB00DD
:100310001900786802F0B0FD0300FB60FA23DA00F0
:100320007B681100180002F08DFE0B00BB60FA2301
:10033000DB0000D501335B101A00BB68934202DD7D
:10034000FB680133FB60FB68094A934201DD084BFF
:10035000FB60FB68002B01DA0023FB60054AFB68A9
:100360005B00D31801331B781800BD4604B080BD74
:100370004B190000F030000880B584B000AF786001
:1003800039607B681800FFF785FF0300FB603A685F
:10039000FB689A4201DDFB6808E0FB681E3B3A6897
:1003A0009A4202DAFB681E3B00E03B681800BD463B
:1003B00004B080BDF0B585B000AF786039600F251E
:1003C0007C197B681800FFF765FF030023700E2679
:1003D000BC197B681800FFF795FF030023707B1999
:1003E0001B783A689A4202DBBB191B7821E03B6814
:1003F000DAB20D203B180F21791809788A1A1A7081
:1004000001007B187A18127892001A700C203B18A1
:1004100079180E22BA18097812788A181A703B18BF
:100420001B785BB2002B01DA7F2302E00C23FB1860
:100430001B781800BD4605B0F0BD000080B500AFC8
:10044000084BDA69074B08490A43DA61074B084A47
:100450009A62064B0022DA62044B01225A61C046BE
:10046000BD4680BD00100240000100100020004089
:100470007FBB000080B582B000AF7860154B0122D1
:100480005A61144B7A68DA62124B01225A62114B9C
:100490001A68104B01210A431A600E4B1A690D4B62
:1004A00001218A431A61C0460A4B1B69012213408D
:1004B000FAD0084B1A69074B01218A431A61054B90
:1004C0001A68044B01218A431A60C046BD4602B037
:1004D00080BDC0460020004080B500AF094B9A693E
:1004E000084B802189020A439A61074B2F229A62A6
:1004F000054B0122DA62044B01225A61C046BD4617
:1005000080BDC046001002400044014080B582B06A
:1005100000AF78607B68012B3ADCC046C046C0461D
:10052000C046C046C046C046C046C046C046C0469B
:10053000C046C046C046C046C046C046C046C0468B
:10054000C046C046C046C046C046C046C046C0467B
:10055000C046C046C046C046C046C046C046C0466B
:10056000C046C046C046C046C046C046C046C0465B
:10057000C046C046C046C046C046C046C046C0464B
:10058000C046C046C046C046C0467B68012B21D04D
:10059000124B01225A61114B7A68DA620F4B022228
:1005A0005A620E4B1A680D4B01210A431A600B4B1D
:1005B0001A690A4B01218A431A61C046074B1B691D
:1005C00001221340FAD0054B1A68044B01218A43DB
:1005D0001A6000E0C046BD4602B080BD0044014044
:1005E00080B582B000AF0200FB1D1A703E4B9A69C5
:1005F0003D4B802189020A439A61FB1D1B78012231
:10060000134009D09023DB059A699023DB058021F4
:1006100049010A439A6108E09023DB059A69902317
:10062000DB05802149050A439A61FB1D1B780222E4
:10063000134009D09023DB059A699023DB058021C4
:1006400009020A439A6108E09023DB059A69902326
:10065000DB05802109060A439A61FB1D1B780422F1
:10066000134006D0204B9A691F4B08210A439A6118
:1006700006E01D4B9A691C4B802109030A439A61CD
:10068000FB1D1B780822134006D0174B9A69164BA6
:1006900010210A439A6106E0134B9A69124B80219C
:1006A00049030A439A61104B9A690F4B02210A438E
:1006B0009A61C046C046C046C046C046C046C04615
:1006C000C046094B9A69084B802189020A439A6106
:1006D000C046C046C046C046C046C046C046C046EA
:1006E000C046BD4602B080BD0004004880B582B05F
:1006F00000AF0200FB1D1A700F4B9A690E4B0121CF
:100700000A439A610520FFF701FFFB1D1B781B09B7
:10071000DBB21800FFF764FF1E20FFF7F7FEFB1D9A
:100720001B781800FFF75CFF1E20FFF7EFFEC046A6
:10073000BD4602B080BDC0460004004880B582B00E
:1007400000AF0200FB1D1A700F4B9A690E4B8021FF
:1007500049020A439A610A20FFF7D8FEFB1D1B7865
:100760001B09DBB21800FFF73BFF6420FFF7CEFE4A
:10077000FB1D1B781800FFF733FF6420FFF7C6FE50
:10078000C046BD4602B080BD0004004880B500AF41
:10079000374B9A69364B802149020A439A61344BA0
:1007A0009A69334B802189020A439A619023DB05C1
:1007B0009A699023DB05802149050A439A619023B9
:1007C000DB059A699023DB05802109060A439A61BB
:1007D000274B9A69264B802109030A439A61244BCF
:1007E0009A69234B802149030A439A611E20FFF72F
:1007F00041FE0320FFF7F4FE0620FFF73BFE032037
:10080000FFF7EEFE9620FFF781FE0320FFF7E8FEDC
:100810006420FFF77BFE0220FFF7E2FE6420FFF773
:1008200075FE2820FFF78AFF6420FFF76FFE08207F
:10083000FFF784FF6420FFF769FE0120FFF77EFFCA
:100840000220FFF717FE0620FFF778FF6420FFF76E
:100850005DFE8020FFF772FF6420FFF757FE0E2039
:10086000FFF76CFF6420FFF751FEC046BD4680BD18
:100870000004004880B582B000AF0200FB1D1A7072
:10088000FB1D1B781800FFF731FFC046BD4602B0C4
:1008900080BD90B585B000AF78600F23FB180022B3
:1008A0001A701FE00F243B191B787A68D3181B7845
:1008B0000A2B09D10121002000F02CF83B191A78ED
:1008C0003B1901321A700DE00F243B191B787A682E
:1008D000D3181B781800FFF709FF3B191A783B194A
:1008E00001321A700F23FB181B787A68D3181B7813
:1008F000002BD7D1C046C046BD4605B090BD80B5DF
:1009000000AF0120FFF71AFF0220FFF7B3FDC0463A
:10091000BD4680BD80B582B000AF0200FB1D1A70DD
:10092000BB1D0A1C1A70BB1D1B78002B09D1FB1DB7
:100930001B78802252421343DBB21800FFF7FEFE01
:1009400010E0BB1D1B78012B0CD1FB1D1B78403325
:10095000DBB25BB28022524213435BB2DBB21800BF
:10096000FFF7ECFE2820FFF7D1FD00231800BD465D
:1009700002B080BD80B500AF0C4B1A680B4B012153
:100980000A431A60C046094BDB6801221340FAD1C2
:10099000064B1B698022134005D0044B044A5A6061
:1009A000024B044A5A60C046BD4680BD002002404A
:1009B00023016745AB89EFCD80B500AF044B1A69C1
:1009C000034B80210A431A61C046BD4680BDC04624
:1009D0000020024080B582B000AF7860C046174B5F
:1009E000DB6801221340FAD1144B1A69134B022120
:1009F0000A431A61114B7A685A61104B1A690F4BFE
:100A000040210A431A61C046C046C0460B4BDB6812
:100A100001221340FAD1094BDB682022134002D097
:100A2000064B2022DA60054B1A69044B02218A43E7
:100A30001A61C046BD4602B080BDC04600200240DB
:100A400080B584B000AF78603960C046264BDB6863
:100A500001221340FAD1244B1A69234B01210A4386
:100A60001A617B683A6892B21A80C046C046C04696
:100A70001D4BDB6801221340FAD11B4BDB6820229F
:100A8000134002D0184B2022DA607B680233FB60EF
:100A9000C046154BDB6801221340FAD13B681A0CA3
:100AA000FB6892B21A80C046C046C0460E4BDB6857
:100AB00001221340FAD1C0460B4BDB6820221340C1
:100AC000FAD0094BDB682022134002D0064B2022CB
:100AD000DA60054B1A69044B01218A431A61C0464A
:100AE000BD4604B080BDC0460020024080B586B03F
:100AF00000AF0023FB6000237B6122E000233B6109
:100B000019E027497A6913005B009B183A699B1822
:100B10009B00595823487A6913005B009B183A6977
:100B20009B189B001B58994202D0FB680133FB6065
:100B30003B6901333B613B69022BE2DD7B69013399
:100B40007B617B69092BD9DDFB68002B01D1002378
:100B500022E0FFF70FFF144B1800FFF73BFF124B8B
:100B6000BB600F4B7B6000237B610FE0BA687B6842
:100B70001B6819001000FFF763FFBB680433BB60FC
:100B80007B6901337B617B6804337B607B691D2B50
:100B9000ECD9FFF711FF01231800BD4606B080BD58
:100BA000BC000020007C0008007C000880B582B0FA
:100BB00000AF00237B601DE000233B6014E011497F
:100BC0007A6813005B009B183A689B189B00585882
:100BD0000D497A6813005B009B183A689B189B00CC
:100BE00058503B6801333B603B68022BE7DD7B6874
:100BF00001337B607B68092BDEDDC046C046BD4605
:100C000002B080BD007C0008BC00002090B583B01D
:100C100000AF02003960FB1D1A70FB1D1B787F2B93
:100C200032D92F4AFB1D1B7819000F230B40083BBC
:100C30009B0806339B00D31804331B68FA1D1278F7
:100C4000110003220A40D200FF2191400A00D24342
:100C50001A4011003B689B01FF221A40FB1D1B78C4
:100C6000180003230340DB009A401D48FB1D1B783E
:100C70001C000F232340083B9B080A4306339B00BC
:100C8000C31804331A6027E0164AFB1D1B785BB2B9
:100C90009B08C0339B009B58FA1D12781100032259
:100CA0000A40D200FF2191400A00D2431A401100AD
:100CB0003B689B01FF221A40FB1D1B781800032391
:100CC0000340DB009A400748FB1D1B785BB29B0882
:100CD0000A43C0339B001A50C046BD4603B090BDC6
:100CE00000ED00E000E100E080B582B000AF786088
:100CF0007B685A1E80235B049A4201D3012310E0D3
:100D00000A4B7A68013A5A6001235B4203211800BA
:100D1000FFF77CFF054B00229A60044B07221A6004
:100D200000231800BD4602B080BDC04610E000E0C0
:100D300080B500AF00F0B0F89023DB059A699023EE
:100D4000DB058021C9030A439A61FFF777FBFFF7B0
:100D5000C3FBFFF71BFDFFF7D2FD434B1800FFF766
:100D600098FD00211120FFF7D5FD01F0BFFDFFF731
:100D70006DFA01F0A3FA00F0BBFAFFF717FF0020AD
:100D800000F0E2FB394B1800FFF774FBFFF7B7FDEB
:100D900000F03AFC364B180001F0E8FD354B180026
:100DA00001F0E4FD01F06CFE334B1800FFF79CFFEF
:100DB00001F068F800F002FF304B1B68002B0AD0EE
:100DC0002F4B180001F046FF031E01D000F01CFC61
:100DD0002A4B00221A602B4B1B68002B07D02A4B92
:100DE0001B78180000F0E6FD264B00221A60274B06
:100DF0001A68274B1B689A4231D0264B1B68002B80
:100E000012DD244B1B685A1E224B1A60214B1B68B3
:100E1000002B24D11D4B1B68180000F0F9FD1D4B61
:100E2000642252421A601AE01A4B1B68002B12DA35
:100E3000184B1B685A1C174B1A60164B1B68002B6B
:100E40000DD1134B1B68180000F0E2FD114B9622E8
:100E500052001A6003E00F4B962252001A600A20DB
:100E6000FFF708FBA4E7C0463C4A0008B80B0000A7
:100E7000604A0008744A0008003E490090000020C3
:100E8000340100209C00002000000020A000002071
:100E9000A4000020A800002080B500AF674B1A68AE
:100EA000664B802149020A431A60C046634B1A68A8
:100EB00080239B021340F9D0604B5A685F4B03219B
:100EC0008A435A60C0465D4B5B680C221340FAD1DE
:100ED0005A4B1A68594B5A490A401A60C046574B38
:100EE0001A6880239B041340F9D1544B5B68554A20
:100EF0001A40524BA02189030A435A604F4B0522E6
:100F0000DA624E4B5A684D4B802149020A435A60BF
:100F10004A4B1A68494B802149040A431A60C0466B
:100F2000464B1A6880239B041340F9D0434B5A6800
:100F3000424B02210A435A60C046404B5B680C2278
:100F40001340082BF9D13D4B5A693C4BC021C902D3
:100F50000A435A619023DB059A689023DB053A49DE
:100F60000A439A60394B9B68384B012252429A607F
:100F70009023DB05DA689023DB05AA21C9030A4325
:100F8000DA609023DB051A689023DB0501210A4310
:100F90001A602E4B1A682D4BA021C9010A431A6012
:100FA0009023DB051A689023DB05802189010A4321
:100FB0001A609023DB051A6A9023DB05802149041F
:100FC0000A431A629023DB051A689023DB058A2105
:100FD000C9010A431A609023DB051A689023DB05D8
:100FE0008221C9050A431A60184B1A68174B46211B
:100FF000FF310A431A60154B1A68144B802109010E
:101000000A431A60114B1A6A104B802149030A43A4
:101010001A629023DB051A689023DB05A0210A439E
:101020001A609023DB051A6A9023DB0588214901A9
:101030000A431A62C046BD4680BDC0460010024049
:10104000FFFFFFFEFFFFC3FFFFFFFFC300040048D9
:1010500080B500AFFEE7000080B500AF9023DB0550
:101060001B69022213400AD00B4B1B783F2B02D185
:101070000A4B01221A60084B20221A7009E0064B25
:101080001B78202B02D1054B01221A60024B3F2214
:101090001A70C046BD4680BD000000209C000020A4
:1010A00080B582B000AF2F4BDB692022134048D0BF
:1010B0002C4B9B8C9AB2FB1D1A70FB1D1B78082BC6
:1010C00003D0FB1D1B787F2B0ED1274B1B68002BF9
:1010D0000ADD254B1B685A1E234B1A60214AFB1D53
:1010E0001B789BB2138539E0FB1D1B78082B03D0BE
:1010F000FB1D1B787F2B03D11B4B1B68002B2CDDAA
:10110000FB1D1B781F2B03D8FB1D1B780D2B25D136
:10111000154B1B68154AF91D0978D154FB1D1B7826
:101120000D2B08D1104B1B68104A0021D154104BD5
:1011300001221A6012E00C4B1B685A1C0A4B1A6001
:101140000CE0084BDB690822134007D0054B1A6AF4
:10115000044B08210A431A6200E0C046BD4602B0B3
:1011600080BDC046003801408C00002034010020C2
:101170009000002080B584B000AF02003960FB1DF4
:101180001A703B68072293433B60FB1D1B780722C4
:1011900013403A6813433B602023FB60314B9A694C
:1011A000304B8021C9030A439A612E4B9A692D4B1B
:1011B000802109040A439A612DE09023DB059A6996
:1011C0009023DB05802149020A439A613B68002B8A
:1011D00006DA244B9A69234B80210A439A6106E080
:1011E000204B9A691F4B802109040A439A613B688E
:1011F0005B003B600A20FFF789F99023DB059A69C1
:101200009023DB0501210A439A610A20FFF77EF94A
:10121000FB68013BFB60FB68002BCED19023DB0514
:101220009A699023DB05802149020A439A610A20CA
:10123000FFF76CF90B4B9A690A4B40210A439A61FC
:101240000A20FFF763F9074B9A69064B8021C9030F
:101250000A439A610A20FFF759F9C046BD4604B017
:1012600080BDC0460004004884B0B0B500AF102572
:101270007C1920606160A260E3602C003B19212290
:101280009A5C3B195B6919001000FFF773FF3B196B
:1012900020229A5C3B191B6919001000FFF76AFFB6
:1012A0003B19DA7F3B19DB6819001000FFF762FF7A
:1012B0003B199A7F3B199B6819001000FFF75AFFF2
:1012C0003B195A7F3B195B6819001000FFF752FF6A
:1012D00021007B181A7F7B181B6819001000FFF78C
:1012E00049FFC046BD46B0BC08BC04B0184700006A
:1012F00080B500AF4B4B00221A774A4B01225A7738
:10130000484B02229A77474B0322DA77454B20223B
:1013100004219954434B212205219954414B222207
:10132000062199543F4B9622D2031A603D4B3E4A08
:101330005A603C4B3D4A9A603A4B3D4ADA60394B21
:101340003C4A1A61374B3C4A5A61364B00229A613B
:10135000344B21229A5C334B5B6919001000FFF774
:1013600009FF1420FFF786F82E4B20229A5C2D4BA4
:101370001B6919001000FFF7FDFE2A4BDA7F294B8D
:10138000DB6819001000FFF7F5FE264B9A7F254B0E
:101390009B6819001000FFF7EDFE224B5A7F214B8E
:1013A0005B6819001000FFF7E5FE1E4B1A7F1D4B0E
:1013B0001B6819001000FFF7DDFE1A4B21229A5C12
:1013C000184B5B6919001000FFF7D4FE154B202263
:1013D0009A5C144B1B6919001000FFF7CBFE114BF0
:1013E000DA7F104BDB6819001000FFF7C3FE0D4BCE
:1013F0009A7F0C4B9B6819001000FFF7BBFE094B4E
:101400005A7F084B5B6819001000FFF7B3FE054BCD
:101410001A7F044B1B6819001000FFF7ABFEC04693
:10142000BD4680BD4801002001FD002042780078C3
:10143000030800003C00886205004001B0B58EB092
:1014400006AF78600023BB6100237B6100233B6112
:101450000023FB610023FB6009E0364AFB691A4167
:1014600013007A689A4206DCFB690133FB61FB6971
:10147000072BF2DD00E0C0467A68FB699A40130052
:10148000FA22D101180001F0F7FC03007B617A68B1
:10149000FB699A401300FA22D101180001F0D2FD35
:1014A0000B1E00DA0733DB103B617A6913005B0126
:1014B0009B1A9B009B185B011A003B69D318DA004A
:1014C000FB691A411300FB603B69DB003B617B69F0
:1014D000DB037B613B69184A1340BA691343BB6164
:1014E0007B69164A1340BA691343BB61BA69144B4E
:1014F0001A60134B1B69134A1A40114B1A61104BA7
:101500001B69FA6912051A430D4B1A610C4B6A46A6
:1015100011001A00103231CA31C111CA11C1186844
:1015200059689A68DB68FFF79FFEFB681800BD46A4
:1015300008B0B0BDC0C62D00F87F00000080FF7F5E
:1015400048010020FFFF8FFF80B582B000AF7860B8
:1015500011497A6813005B009B189B005A580F4B87
:101560001A600D497A6813005B009B189B00CB182A
:1015700004331A680A4B1A6007497A6813005B0043
:101580009B189B00CB1808331A68064B1A60C0469C
:10159000BD4602B080BDC046BC000020A0000020B7
:1015A000AC000020B000002080B582B000AF7860B1
:1015B000114B186811497A6813005B009B189B0057
:1015C00058500F4B19680D487A6813005B009B1840
:1015D0009B00C318043319600A4B196807487A68DE
:1015E00013005B009B189B00C31808331960C046AA
:1015F000BD4602B080BDC046A0000020BC00002057
:10160000AC000020B000002080B582B000AF002107
:101610000020FFF77FF9D34B1B68DBB23033DBB21E
:101620001800FFF727F92020FFF724F92020FFF703
:1016300021F900210420FFF76DF92020FFF71AF9A6
:10164000C94B1B687B60FB1C30221A7009E0FB1C35
:101650001A78FB1C01321A707B68C44A94466344B2
:101660007B607B68C24A9342F1DCFB1C1B7818004C
:10167000FFF700F9FB1C30221A7009E0FB1C1A78F6
:10168000FB1C01321A707B68BA4A944663447B6043
:101690007B68B94A9342F1DCFB1C1B781800FFF70A
:1016A000E9F8FB1C30221A7009E0FB1C1A78FB1CBD
:1016B00001321A707B68B14A944663447B607B6850
:1016C000AF4A9342F1DCFB1C1B781800FFF7D2F8FD
:1016D000FB1C30221A7009E0FB1C1A78FB1C01323B
:1016E0001A707B68A74A944663447B607A68FA2341
:1016F0009B009A42F0DAFB1C1B781800FFF7BAF83F
:101700002E20FFF7B7F8FB1C30221A7007E0FB1CF5
:101710001A78FB1C01321A707B68643B7B607B6823
:10172000632BF4DCFB1C1B781800FFF7A3F8FB1CF1
:1017300030221A7007E0FB1C1A78FB1C01321A7069
:101740007B680A3B7B607B68092BF4DCFB1C1B7805
:101750001800FFF78FF87B68DAB2FB1C30321A7082
:10176000FB1C1B781800FFF785F8874B1800FFF764
:1017700090F8864B1B680933122B02D82020FFF704
:1017800079F8824B1B68002B06DB2B20FFF772F8E1
:101790007E4B1B687B6006E02D20FFF76BF87B4BD0
:1017A0001B685B427B60FB1C30221A7007E0FB1C4D
:1017B0001A78FB1C01321A707B680A3B7B607B68DD
:1017C000092BF4DCFB1C1B78302B04D0FB1C1B7892
:1017D0001800FFF74FF87B68DAB2FB1C30321A7042
:1017E000FB1C1B781800FFF745F8694B1800FFF742
:1017F00050F8684B1B687B60664B1B68002B04D15C
:10180000654B1800FFF745F863E0FB1C30221A70A7
:1018100009E0FB1C1A78FB1C01321A707B68574ADE
:10182000944663447B607B68554A9342F1DCFB1C21
:101830001B781800FFF71EF8FB1C30221A7009E015
:10184000FB1C1A78FB1C01321A707B684D4A9446C7
:1018500063447B607A68FA239B009A42F0DAFB1CAF
:101860001B781800FFF706F82E20FFF703F8FB1C83
:1018700030221A7007E0FB1C1A78FB1C01321A7028
:101880007B68643B7B607B68632BF4DCFB1C1B7810
:101890001800FEF7EFFFFB1C30221A7007E0FB1C5C
:1018A0001A78FB1C01321A707B680A3B7B607B68EC
:1018B000092BF4DCFB1C1B781800FEF7DBFF7B68B0
:1018C000DAB2FB1C30321A70FB1C1B781800FEF7D2
:1018D000D1FF304B1B68002B04D0304B1800FEF7B3
:1018E000D8FF03E02E4B1800FEF7D3FF2D4B1B68EB
:1018F0002D4A134004D5013B1022524213430133B9
:10190000DAB2284B1B68002B00DA0F331B11DBB255
:1019100019001000FEF7FEFF134B1B681800FFF7BD
:101920008DFD0200214B1A600F4B1A68174B1B6884
:1019300019001000FEF73EFD03001800FEF726FC1C
:10194000144B1B68180000F00FFD064B1B681800B5
:10195000FFF72AFE164BC82252421A60C046BD4607
:1019600002B080BD98000020A0000020C0BDF0FFA4
:101970003F420F006079FEFF9F860100F0D8FFFF15
:101980000F27000018FCFFFF7C4A0008AC00002075
:10199000844A0008B00000208C4A0008944A0008DD
:1019A000984A0008940000200F000080A400002046
:1019B000A800002080B582B000AF0200FB1D1A70A5
:1019C00000210320FEF7A6FFFB1D1B781800FEF781
:1019D00051FF0D4B1B680D4A134004D5013B1022EB
:1019E000524213430133DAB2074B1B68002B00DA73
:1019F0000F331B11DBB219001000FEF78BFFC0463E
:101A0000BD4602B080BDC046940000200F0000809B
:101A100090B585B000AF786000210520FEF77AFF11
:101A20007B68FB600B23FB1830221A700AE00B2145
:101A30007B181A787B1801321A70FB68564A944654
:101A40006344FB60FB68554A9342F0DC0B243B196E
:101A50001B781800FEF70EFF3B1930221A700AE0BF
:101A60000B217B181A787B1801321A70FB684C4ADC
:101A700094466344FB60FB684A4A9342F0DC0B24C3
:101A80003B191B781800FEF7F5FE3B1930221A703F
:101A90000AE00B217B181A787B1801321A70FB6858
:101AA000414A94466344FB60FB68404A9342F0DC41
:101AB0000B243B191B781800FEF7DCFE3B19302283
:101AC0001A700AE00B217B181A787B1801321A7001
:101AD000FB68374A94466344FB60FA68FA239B002C
:101AE0009A42EFDA0B243B191B781800FEF7C2FE6E
:101AF0002E20FEF7BFFE3B1930221A7008E00B21A2
:101B00007B181A787B1801321A70FB68643BFB6003
:101B1000FB68632BF3DC0B243B191B781800FEF7E2
:101B2000A9FE3B1930221A7008E00B217B181A78A5
:101B30007B1801321A70FB680A3BFB60FB68092BBB
:101B4000F3DC0B243B191B781800FEF793FEFB68AF
:101B5000DAB23B1930321A703B191B781800FEF7C5
:101B600089FE144B1B68144A134004D5013B102214
:101B7000524213430133DAB20E4B1B68002B00DADA
:101B80000F331B11DBB219001000FEF7C3FEC04675
:101B9000BD4605B090BDC046C0BDF0FF3F420F003E
:101BA0006079FEFF9F860100F0D8FFFF0F2700003D
:101BB00018FCFFFF940000200F00008080B584B067
:101BC00000AFAA4B1B687B609023DB051A6980235A
:101BD0005B00134000D09EE0A44B1B685A1CA34B33
:101BE0001A60A24B1B68002B06DDA04B1B68042B60
:101BF00002DC9E4B05221A609C4B1B68092B02D10C
:101C00009A4B0A221A60994B1B680C2B06DD974BE6
:101C10001B68102B02DC954B11221A60934B1B683A
:101C2000122B06DD914B1B68162B02DC8F4B172203
:101C30001A608E4B1B68192B02D18C4B1A221A602A
:101C40008A4B1B681C2B02DD884B1C221A60874BB9
:101C50001B68874A134004D5013B102252421343AC
:101C60000133DAB2814B1B68002B00DA0F331B11F2
:101C7000DBB219001000FEF74DFEC823FB603DE00B
:101C80000120FEF7F7FB9023DB051A6980231B0177
:101C9000134030D1754B7A681A6000210020FEF79E
:101CA00039FE744B1800FEF7F4FDFEF71FFF031E0C
:101CB00004D0714B1800FEF7ECFD03E06F4B1800E9
:101CC000FEF7E7FD6E4B1800FEF7D4FBFEF717FE9C
:101CD0000023FB60FFF798FCC0469023DB051A69E0
:101CE00080231B011340F8D09023DB051A69802361
:101CF0005B001340F1D0FB68013BFB609023DB05E8
:101D00001A6980235B00134002D1FB68002BB7D116
:101D10000A20FEF7AFFB9023DB051A6980231B0125
:101D2000134000D09EE0514B1B685A1E4F4B1A6067
:101D30004E4B1B68002B02DA4C4B00221A604B4BB7
:101D40001B68002B06DD494B1B68042B02DC474B4C
:101D500000221A60454B1B68092B02D1434B082215
:101D60001A60424B1B680C2B06DD404B1B68102B86
:101D700002DC3E4B0C221A603C4B1B68122B06DD2A
:101D80003A4B1B68162B02DC384B12221A60374B79
:101D90001B68192B02D1354B18221A60334B1B6874
:101DA000334A134004D5013B1022524213430133FE
:101DB000DAB22E4B1B68002B00DA0F331B11DBB29B
:101DC00019001000FEF7A6FDC823BB603DE001200E
:101DD000FEF750FB9023DB051A6980235B0013405C
:101DE00030D1224B7A681A6000210020FEF792FD64
:101DF000204B1800FEF74DFDFEF778FE031E04D0C1
:101E00001D4B1800FEF745FD03E01C4B1800FEF7C4
:101E100040FD1B4B1800FEF72DFBFEF770FD002365
:101E2000BB60FFF7F1FBC0469023DB051A698023F6
:101E30001B011340F8D09023DB051A6980235B0057
:101E40001340F1D0BB68013BBB609023DB051A69EE
:101E500080231B01134002D1BB68002BB7D10A209D
:101E6000FEF708FBC046BD4604B080BD94000020CC
:101E70000F0000809C4A0008B04A0008C44A0008CD
:101E8000B80B000080B500AF9023DB051A698023F2
:101E90009B00134000D0A6E0AA4B1B681C2B00D966
:101EA00077E09A00A84BD3181B689F46A74B1B6886
:101EB0005A1CA64B1A60A54B1B68092B02DDA34BCD
:101EC00009221A60A14B1B681800FFF73DFB60E078
:101ED0009F4B1B689F4A9A189D4B1A6059E09C4B78
:101EE0001B689D4A9A189A4B1A6052E0984B1B68DF
:101EF0009A4A9A18964B1A604BE0954B1B68FA2247
:101F000092009A18924B1A6043E0914B1B6864331D
:101F10001A008F4B1A603CE08D4B1B680A331A0085
:101F20008B4B1A6035E08A4B1B685A1C884B1A6031
:101F30002FE08B4B1B680A331A00894B1A6028E08C
:101F4000874B1B685A1C864B1A6022E0854B1B6826
:101F5000824A9A18834B1A601BE0824B1B68FA2254
:101F600092009A187F4B1A6013E07E4B1B68643313
:101F70001A007C4B1A600CE07A4B1B680A331A007B
:101F8000784B1A6005E0774B1B685A1C754B1A603A
:101F9000C0466F4B1B68744A934202DD6C4B724A19
:101FA0001A606B4B1A686E4B1B6819001000FEF725
:101FB000E3F902006A4B1A606A4B1B686B4A934252
:101FC00002DD684B694A1A60FFF71EFB00F058FDFE
:101FD000C0469023DB051A6980239B001340F8D08C
:101FE0000A20FEF747FA9023DB051A698023DB00FD
:101FF000134000D0A2E0534B1B681C2B00D975E0A6
:102000009A005B4BD3181B689F46504B1B685A1EA7
:102010004E4B1A604D4B1B68002B02DA4B4B0022D3
:102020001A604A4B1B681800FFF78EFA5EE0484BB7
:102030001B68504A9A18464B1A6057E0444B1B687D
:102040004D4A9A18424B1A6050E0414B1B684B4A6C
:102050009A183F4B1A6049E03D4B1B68484A9A1852
:102060003B4B1A6042E03A4B1B68643B1A00384B0A
:102070001A603BE0364B1B680A3B1A00344B1A606F
:1020800034E0334B1B685A1E314B1A602EE0344B40
:102090001B680A3B1A00324B1A6027E0304B1B6862
:1020A0005A1E2F4B1A6021E02E4B1B68334A9A1898
:1020B0002C4B1A601AE02B4B1B68314A9A18294B9B
:1020C0001A6013E0274B1B68643B1A00254B1A600B
:1020D0000CE0244B1B680A3B1A00224B1A6005E0F7
:1020E000204B1B685A1E1F4B1A60C046184B1B68BA
:1020F000002B02DA164B00221A60154B1A68184B97
:102100001B6819001000FEF737F90200144B1A6023
:10211000144B1B68002B02DA124B00221A60FFF7E7
:1021200073FA00F0ADFCC0469023DB051A698023EA
:10213000DB001340F8D00A20FEF79CF9C046BD46EC
:1021400080BDC04694000020D84A000898000020B6
:10215000A000002040420F00A086010010270000D0
:10216000AC000020B0000020C0CF6A0050C30000C7
:102170004C4B0008C0BDF0FF6079FEFFF0D8FFFFB8
:1021800018FCFFFF80B582B000AF0200FB1D1A7083
:10219000FB1D1B781A001F23134001229A40034B9A
:1021A0001A60C046BD4602B080BDC04600E100E0F6
:1021B00080B582B000AF0200FB1D1A70FB1D1B78BA
:1021C0001A001F23134001229A401300034A1900EA
:1021D0008023D150C046BD4602B080BD00E100E082
:1021E00090B583B000AF02003960FB1D1A70FB1D73
:1021F0001B787F2B32D92F4AFB1D1B7819000F2328
:102200000B40083B9B0806339B00D31804331B6824
:10221000FA1D1278110003220A40D200FF219140DA
:102220000A00D2431A4011003B689B01FF221A406A
:10223000FB1D1B78180003230340DB009A401D4858
:10224000FB1D1B781C000F232340083B9B080A43FF
:1022500006339B00C31804331A6027E0164AFB1D9F
:102260001B785BB29B08C0339B009B58FA1D127809
:10227000110003220A40D200FF2191400A00D243FC
:102280001A4011003B689B01FF221A40FB1D1B787E
:10229000180003230340DB009A400748FB1D1B780E
:1022A0005BB29B080A43C0339B001A50C046BD4630
:1022B00003B090BD00ED00E000E100E080B500AFAC
:1022C000254BDA69244B25490A43DA61244B1A6805
:1022D000234B90210A431A60214B00229A60204B25
:1022E000DA681F4B01210A43DA601D4B9A691C4BC7
:1022F00060210A439A611A4B9A69194BC021C9019E
:102300000A439A61164B9A69154B16490A439A611A
:10231000134B1A6A124B11210A431A62104B002206
:102320005A620F4B00229A620D4B01225242DA622E
:102330000B4B00225A630A4B00229A63084B01227E
:102340005A611020FFF71EFF01211020FFF748FF00
:10235000C046BD4680BDC0460010024002000010CD
:10236000000400400808000080B586B000AF786027
:10237000814B9A69804B802189030A439A6190239B
:10238000DB059A699023DB058021C9030A439A6122
:102390009023DB051A689023DB0578490A401A6010
:1023A000754B1A68744B76490A401A607B68002B9B
:1023B00028DC744B1A68734B01218A431A60714BF5
:1023C00001225A611020FFF7F3FE9023DB051A6803
:1023D0009023DB056C490A401A60674B1A68664B0C
:1023E0006A490A401A60644B9A69634B20210A4388
:1023F0009A619023DB059A699023DB0540210A430B
:102400009A61B4E07B68632B39DC7968604800F03E
:1024100033FD0300FB605E4B7968180000F012FE8C
:102420000B001A005B4B1A605B4B7A681A605A4BC0
:102430001A685A4B1A60FB68002B00DA01335B10F4
:102440001A00504B5A63FB68002B00DA01335B1013
:102450001A004C4B9A63FB685A1E4A4BDA62494B8E
:102460004F4A9A62474B01225A61464B1A68454BC4
:1024700001210A431A601020FFF784FE77E07A6892
:10248000FA239B009A4239DC7968464800F0F4FC54
:1024900003003B61434B7968180000F0D3FD0B004B
:1024A0001A003C4B1A603C4B7A681A603A4B1A6827
:1024B0003A4B1A603B69002B00DA01335B101A00BB
:1024C000304B5A633B69002B00DA01335B101A0072
:1024D0002C4B9A633B695A1E2A4BDA62294B07221E
:1024E0009A62284B01225A61264B1A68254B01211A
:1024F0000A431A601020FFF745FE38E079682A4841
:1025000000F0BAFC03007B61274B7968180000F0EB
:1025100099FD0B001A001F4B1A601F4B7A681A6056
:102520001D4B1A681D4B1A607B69002B00DA0133C2
:102530005B101A00134B5A637B69002B00DA0133DE
:102540005B101A000F4B9A637B695A1E0D4BDA62BF
:102550000C4B00229A620B4B01225A61094B1A68FC
:10256000084B01210A431A601020FFF70BFEC046FA
:10257000BD4606B080BDC04600040048FFEFFFFF27
:10258000FFFBFFFF00040040FFDFFFFFFFF7FFFF3F
:1025900050C30000B400002004000020B800002058
:1025A000BF030000808D5B00006CDC0280B500AFD3
:1025B000124B00221A61124B1B68002B1BD0114BCF
:1025C0001B68002B0FD00F4B1A680D4B1B689A42EB
:1025D00003D10A4BDA6A0132DA620A4B1B685A1ECF
:1025E000084B1A6007E0084B1A68064B1A60034B49
:1025F000DA6A013ADA62C046BD4680BD0004004096
:10260000B4000020B8000020040000200749084A58
:10261000084B9B1A05DD00240859105104349C42D4
:10262000FADB05488047054800470000E04C0008F9
:102630000000002070000020AD26000819010008ED
:102640001849194A002301E00B6004319142FBD381
:10265000FEF76EFBFEE7FEE7FEE7FEE7FEE7FEE7BE
:10266000FEE7FEE7FEE7FEE7FEE7FEE7FEE7FEE742
:10267000FEE7FEE7FEE7FEE7FEE7FEE7FEE7FEE732
:10268000FEE7FEE7FEE7FEE7FEE7FEE7FEE7FEE722
:10269000FEE7FEE7FEE7FEE7FEE7FEE7FEE7FEE712
:1026A000FEE7FEE7700000206C01002080B500AF5F
:1026B0001B4B1A681A4B01210A431A60184B5A68BF
:1026C000174B18490A405A60154B1A68144B1649A3
:1026D0000A401A60124B1A68114B14490A401A60DA
:1026E0000F4B5A680E4B12490A405A600C4BDA6A7B
:1026F0000B4B0F218A43DA62094B1A6B084B0D49C9
:102700000A401A63064B5A6B054B01218A435A63F0
:10271000034B00229A6000F00FF8C046BD4680BD12
:10272000001002400CB8FF08FFFFF6FEFFFFFBFFA2
:10273000FFFFC0FFECFEFFFF80B500AF1E4B112274
:102740001A601E4A1D4B52685A601C4A1B4B526845
:102750005A601A4B5A68194B19490A405A60174B6C
:102760005A68164BA02189030A435A60134B1A6812
:10277000124B802149040A431A60C0460F4B1A6865
:1027800080239B041340F9D00C4B5A680B4B032158
:102790008A435A60094B5A68084B02210A435A601F
:1027A000C046064B5B680C221340082BF9D1C0468B
:1027B000C046BD4680BDC046002002400010024019
:1027C000FFFFC2FF80B582B000AF0200FB1D1A7090
:1027D000FB1D1B781A001F23134001229A40034B54
:1027E0001A60C046BD4602B080BDC04600E100E0B0
:1027F00090B583B000AF02003960FB1D1A70FB1D5D
:102800001B787F2B32D92F4AFB1D1B7819000F2311
:102810000B40083B9B0806339B00D31804331B680E
:10282000FA1D1278110003220A40D200FF219140C4
:102830000A00D2431A4011003B689B01FF221A4054
:10284000FB1D1B78180003230340DB009A401D4842
:10285000FB1D1B781C000F232340083B9B080A43E9
:1028600006339B00C31804331A6027E0164AFB1D89
:102870001B785BB29B08C0339B009B58FA1D1278F3
:10288000110003220A40D200FF2191400A00D243E6
:102890001A4011003B689B01FF221A40FB1D1B7868
:1028A000180003230340DB009A400748FB1D1B78F8
:1028B0005BB29B080A43C0339B001A50C046BD461A
:1028C00003B090BD00ED00E000E100E080B500AF96
:1028D000BFF34F8FC046034B034ADA60BFF34F8FFD
:1028E000C046FEE700ED00E00400FA0580B500AF49
:1028F0001A4B9A69194B8021C9010A439A61184BF6
:10290000184ADA60164B1A68154B802109020A43EF
:102910001A60134B1A68124B04210A431A60104BB9
:102920001A680F4B08210A431A600D4B0E4A5A6170
:102930000B4B1A680A4B01210A431A60084B1A68AC
:10294000074B20210A431A601B20FFF73BFF02219F
:102950001B20FFF74DFFC046BD4680BD0010024062
:102960000038014010270000FFFFFF0080B584B051
:1029700000AF78600023FB600FE0FB687A68D31833
:102980001A780B4B92B21A85FB680133FB60C04684
:10299000074BDB6940221340FAD0FB687A68D318F2
:1029A0001B78002BE9D1C046C046BD4604B080BDAF
:1029B0000038014080B582B000AF0200FB1D1A70E4
:1029C000074AFB1D1B789BB21385C046044BDB698D
:1029D00040221340FAD0C046C046BD4602B080BD7A
:1029E0000038014080B588B000AF786039600C23B2
:1029F000FB18224A03CA03C31188198092789A707F
:102A00003B68FB617B68002B07DAFB695A1CFA61A3
:102A10002D221A707B685B427B607B68BB61FB691F
:102A20000133FB61BB690A21180000F025FA03009D
:102A3000BB61BB69002BF2D1FB6900221A707B6875
:102A40000A21180000F0FEFA0B001A00FB69013B96
:102A5000FB610C23FB189A5CFB691A707B680A21E6
:102A6000180000F009FA03007B607B68002BE6D1B8
:102A70003B681800BD4608B080BDC046C04B00088A
:102A800080B584B000AF234B1B683A1D11001800BD
:102A9000FFF7A8FF3B1D1800FFF768FF2020FFF796
:102AA00089FF1D4B1B781800FFF784FF2020FFF7DC
:102AB00081FF1A4B1B683A1D11001800FFF792FFA7
:102AC0003B1D1800FFF752FF154B1800FFF74EFF94
:102AD000144B1B683A1D11001800FFF783FF3B1DC4
:102AE0001800FFF743FF104B1800FFF73FFF0F4B95
:102AF0001B683A1D11001800FFF774FF3B1D1800FA
:102B0000FFF734FF0A4B1800FFF730FFC046BD4601
:102B100004B080BD9800002000000020A00000202C
:102B2000CC4B0008AC000020D44B0008B0000020C3
:102B3000DC4B000880B58AB000AF786039600023B4
:102B40007B620C23FB182F4A03CA03C31188198028
:102B500092789A7000233B620123FB617B681B78AB
:102B60002D2B08D101235B42FB613B68013B3B609D
:102B700001233B623AE07B681B782B2B36D1012383
:102B8000FB613B68013B3B6001233B622EE000237D
:102B9000BB610DE00C23FA18BB69D3181A783B6AA5
:102BA0007968CB181B789A420AD0BB690133BB61A4
:102BB0000C23FA18BB69D3181B78002BEAD100E06C
:102BC000C046BB69092B01DD0023BB617A6A130093
:102BD0009B009B185B007B62BB697A6AD3187B629F
:102BE0003B6A01333B623B68013B3B603B68002B27
:102BF000CDD1FA697B6A53437B627B6A1800BD467C
:102C00000AB080BDC04B000880B582B000AF7860CC
:102C100039600DE07B681B78002B0FD03B681B7878
:102C2000002B0BD07B6801337B603B6801333B603A
:102C30007B681A783B681B789A42EBD03B681B781C
:102C4000002B01D1002301E001235B421800BD46A7
:102C500002B080BD80B588B000AF7860734B1B6850
:102C6000002B01D10023DCE0714A7B6811001800C1
:102C7000FFF7CAFF031E04D16E4B1800FFF776FE64
:102C8000CBE06D4A7B6811001800FFF7BDFF031E03
:102C900016D17B68023303211800FFF74BFF0300B6
:102CA000FB60664B1B68FA6811001800FDF764FBB7
:102CB0000200634B1A60634B1800FFF757FEACE04D
:102CC000614A7B6811001800FFF79EFF031E1ED1AA
:102CD0007B68023307211800FFF72CFF03003B61DC
:102CE000564B3A691A60554B1B68584A934202DDAD
:102CF000524B574A1A60514B1B68002B02DA4F4B5C
:102D000000221A604F4B1800FFF730FE85E0514A51
:102D10007B6811001800FFF777FF031E1ED17B6848
:102D2000023305211800FFF705FF03007B614A4BC2
:102D30007A691A60484B1B68484A934202DD464B49
:102D4000464A1A60444B1B68002B02DA424B0022B1
:102D50001A603C4B1800FFF709FE5EE0404A7B68B2
:102D600011001800FFF750FF031E06D1FDF7BEFE4D
:102D7000344B1800FFF7FAFD4FE03A4A7B68110028
:102D80001800FFF741FF031E06D12E4B1800FFF776
:102D9000EDFDFFF79BFD40E0334A7B681100180012
:102DA000FFF732FF031E14D17B68023301211800A4
:102DB000FFF7C0FE0300BB612C4BBA691A602B4BB6
:102DC0001B681800FEF7C0FB1E4B1800FFF7CEFD76
:102DD00023E0274A7B6811001800FFF715FF031E48
:102DE00012D17B68043303211800FFF7A3FE030010
:102DF000FB61FB69DBB21800FDF7C8F9114B180045
:102E0000FFF7B4FD00230CE01A4B1800FFF7AEFDEE
:102E1000064B00221A60002303E0044B00221A60D4
:102E200001231800BD4608B080BDC0468C000020BC
:102E3000E44B0008EC4B00087C4C0008A00000208C
:102E4000AC000020804C0008884C0008C0CF6A000D
:102E5000808D5B008C4C0008B000002050C3000047
:102E6000904C00089C4C0008A04C000898000020E2
:102E7000A44C0008AC4C000803460B437FD400224E
:102E800043088B4274D303098B425FD3030A8B42FE
:102E900044D3030B8B4228D3030C8B420DD3FF2268
:102EA000090212BA030C8B4202D31212090265D036
:102EB000030B8B4219D300E0090AC30B8B4201D3E9
:102EC000CB03C01A5241830B8B4201D38B03C01A30
:102ED0005241430B8B4201D34B03C01A5241030BA7
:102EE0008B4201D30B03C01A5241C30A8B4201D358
:102EF000CB02C01A5241830A8B4201D38B02C01A03
:102F00005241430A8B4201D34B02C01A5241030A79
:102F10008B4201D30B02C01A5241CDD2C3098B425E
:102F200001D3CB01C01A524183098B4201D38B01DB
:102F3000C01A524143098B4201D34B01C01A52417E
:102F400003098B4201D30B01C01A5241C3088B42C3
:102F500001D3CB00C01A524183088B4201D38B00AE
:102F6000C01A524143088B4201D34B00C01A524150
:102F7000411A00D201465241104670475DE0CA0F27
:102F800000D04942031000D34042534000229C46E7
:102F900003098B422DD3030A8B4212D3FC228901F1
:102FA00012BA030A8B420CD3890192118B4208D3C7
:102FB000890192118B4204D389013AD0921100E029
:102FC0008909C3098B4201D3CB01C01A524183093D
:102FD0008B4201D38B01C01A524143098B4201D36A
:102FE0004B01C01A524103098B4201D30B01C01A95
:102FF0005241C3088B4201D3CB00C01A524183080F
:103000008B4201D38B00C01A5241D9D243088B4264
:1030100001D34B00C01A5241411A00D20146634607
:1030200052415B10104601D34042002B00D549426B
:10303000704763465B1000D3404201B5002000F0AA
:1030400005F802BD0029F8D016E770477047C04662
:10305000084B10B50400002B02D0002100E000BF97
:10306000054B1868836A002B00D09847200000F0B9
:1030700031F8C04600000000D04C000870B50026B2
:103080000C4D0D4C641BA410A64209D1002600F083
:1030900023F80A4D0A4C641BA410A64205D170BD4A
:1030A000B300EB5898470136EEE7B300EB5898476A
:1030B0000136F2E768000020680000206800002068
:1030C0006C00002003008218934200D170471970F1
:1030D0000133F9E7FEE7C046F8B5C046F8BC08BCC6
:1030E0009E467047F8B5C046F8BC08BC9E4670477F
:1030F0000403050307030803080309030A030B007D
:103100000B030C000C030C030D010D030D030E014A
:103110000E020E030E030E030F010F010F020F022A
:103120000F030F030F030F030F030F031000100013
:103130001000100110011001100110011001100108
:1031400010011001100110011001100110011001F7
:1031500010011001100110011001100110011001E7
:1031600010011001100110011001100110011001D7
:1031700010011001100110011001100110011001C7
:1031800010011001100110011001100110011001B7
:1031900010011001100110011001100110011001A7
:1031A0001001100110011001100110011001100197
:1031B0001001100110011001100110011001100187
:1031C0001001100110011001100110011001100177
:1031D0001001100110011001100110011001100167
:1031E0001001100110011001100110011001100157
:1031F0001001100110011001100110011001100147
:103200001001100110011001100110011001100136
:103210001001100110011001100110011001100126
:103220001001100110011001100110011001100215
:1032300010021002100210021002100210021002FE
:1032400010021002100210021002100210021001EF
:1032500010011001100110011001100110011001E6
:1032600010011001100110011001100110011001D6
:1032700010011001100010001000100010001000CC
:1032800010001001100110011001100110011001B7
:1032900010011001100110011001100110011001A6
:1032A0001001100110011001100110011001100196
:1032B0001001100110011001100110011001100186
:1032C0001001100110011001100110011001100176
:1032D0001001100110011001100110011001100166
:1032E0001001100110011001100110011001100156
:1032F0001001100110011001100110011001100146
:103300001001100110011001100110011001100135
:103310001001100110011001100110011001100125
:103320001001100110011001100110011001100115
:10333000100010011000100010001000100010000C
:1033400010001000100010001000100010001000FD
:1033500010001000100010001000100010011001EB
:1033600010011001100110011001100110011001D5
:1033700010011001100110011001100110011001C5
:1033800010011001100110011001100110011001B5
:1033900010021002100210021001100110011001A1
:1033A0001001100110011001100110011001100195
:1033B0001001100110011001100110011001100185
:1033C000100110011002100210021002100210026F
:1033D000100210021002100210021002100210025D
:1033E0001003100310031002100310031003100247
:1033F000100210021002100210021002100210023D
:103400001002100210011001100110011001100132
:103410001001100110011001100110021002100221
:10342000100210021002100210021002100210020C
:1034300010021002100210021002100210021002FC
:1034400010021002100210021002100310031003E9
:1034500010031003100310031003100310031003D4
:1034600010031003100310031003100210021002C7
:1034700010021002100210021002100210021002BC
:1034800010021002100210021002100210021002AC
:10349000100210021002100210021002100210039B
:1034A0001003100310031003100310031003100384
:1034B0001003100310031003100310031003100374
:1034C0001003100310031003100310031003100364
:1034D0001003100310031003100310031003100354
:1034E000100310031002100210021002100210024A
:1034F000100210031002100210021002100210023B
:103500001003100210031003100310031003100324
:103510001003100310031003100310031003100313
:103520001003100310031003100310031003100204
:1035300010021002100210021002100210021002FB
:1035400010021002100210021002100210021003EA
:1035500010031003100310031003100310031003D3
:1035600010031003100310031003100310031003C3
:1035700010031003100310031003100310031003B3
:1035800010031003100310031003100310031003A3
:103590001003100310031003100310031003100393
:1035A0001003100310021002100210031002100288
:1035B000100210021002100210021002100210027B
:1035C000100210021002100210021002100210036A
:1035D0001003100310031003100310031003100353
:1035E0001003100310031003100310031003100343
:1035F0001003100310031003100310031003100333
:103600001003100310031003100310031003100322
:103610001003100310031003100310031003100312
:103620001003100310031003100310031003100302
:1036300010031003100310031003100310031003F2
:1036400010031003100310031003100310031003E2
:1036500010031003100310031003100310031003D2
:1036600010031003100310031003100310031003C2
:1036700010031003100310031003100310031003B2
:1036800010031003100310031003100310031003A2
:103690001003100310031003100310031003100392
:1036A0001003100310031003100310031003100382
:1036B0001003100310031003100310031003100372
:1036C0001003100310031003100310031003100362
:1036D0001003100310031003100310031003100352
:1036E0001003100310031003100310031003100342
:1036F0001003100310031003100310031003100332
:103700001003100310031003100310031003100321
:103710001003100310031003100310031003100311
:103720001003100310031003100310031003100301
:1037300010031003100310031003100310031003F1
:1037400010031003100310031003100310031003E1
:1037500010031003100310031003100310031003D1
:1037600010031003100311001100110011001100CB
:1037700011001100110011001100110011001100C1
:1037800011001100110011001100110011001100B1
:1037900011001100110011001100110011001100A1
:1037A0001100110011001100110011001100110091
:1037B0001100110011001100110011001100110081
:1037C0001100110011001100110011001100110071
:1037D0001100110011001100110011001100110061
:1037E0001100110011001003100310031003100347
:1037F0001003100310031003100310031003100331
:103800001003100310031003100310031003100320
:103810001003100310031003100310031003100310
:103820001003100310031003100310031100100302
:103830001100110011001100110011001100110000
:1038400011001100110011001100110011001100F0
:1038500011001003100310031003100310031003D2
:1038600010031003100310031003100310031003C0
:1038700010031003100310031003100310031003B0
:1038800010031003100310031003100310031003A0
:103890001003100310031003100310031003110092
:1038A000110011001100110011001100110111018E
:1038B0001101110111011101110111011101110178
:1038C0001101110111011101110111011101110168
:1038D0001101110111011101110111011101110158
:1038E0001101110111011101110111011101110148
:1038F0001101110111011101110111011101110138
:103900001101110111011101110111011101110127
:103910001101110111011101110111011100110118
:103920001101110111011101110111011101110107
:1039300011011101110111011101110211021102F4
:1039400011021102110211021102110111011101E2
:1039500011011101110111011101110111011101D7
:1039600011011101110111011101110111011101C7
:1039700011001100110011001003100310031003B7
:1039800010031003100310021002100210021002A4
:103990001002100210021002100210021002100297
:1039A0001002100210021002100310031003100383
:1039B0001003100310031003100210021002100273
:1039C0001002100210021002100210021002100267
:1039D0001002100210021002100210021002100257
:1039E0001003100210031003100310031003100340
:1039F000100310031003100310031003100310032F
:103A00001003100310031003110011001100110026
:103A10001100110010031100100310031003100314
:103A200010031003100310031003100310031003FE
:103A300010031003100310031003100310031003EE
:103A400010031003100310031003100210021002E1
:103A500010021003100210021002100210021003D4
:103A600010031003100210031003100310031003BF
:103A700010031003100310031003100310031003AE
:103A8000100310031003100310031003100310039E
:103A9000100310031003100310031003100310038E
:103AA000100310031003100310031003100310037E
:103AB000100310031003100310031003100310036E
:103AC000100310031003100310031003100310035E
:103AD0001003100310021002100210021002100254
:103AE0001002100210021002100210021002100246
:103AF000100210021002100210011001100110013A
:103B0000100110011001100110011001100110012D
:103B1000100110011001100110011001100110011D
:103B20001001100010001000100010001000100014
:103B300010001001100110011001100110011001FE
:103B400010011001100110001000100010001000F2
:103B500010001000100010001000100010001000E5
:103B6000100010000F030F030F030F030F030F03C9
:103B70000F030F030F030F030F030F030F030F03B5
:103B80000F030F030F030F030F030F030F030F03A5
:103B90000F020F020F020F020F020F020F020F029D
:103BA0000F020F020F020F020F020F020F020F038C
:103BB0000F030F030F030F030F030F020F020F0278
:103BC0000F020F020F020F020F020F020F020F026D
:103BD0000F020F020F020F020F020F020F020F025D
:103BE0000F020F020F010F010F010F020F010F0251
:103BF0000F010F010F010F020F020F020F020F0240
:103C00000F020F020F020F020F020F020F020F022C
:103C10000F020F020F020F020F020F020F020F021C
:103C20000F020F020F020F020F020F020F020F020C
:103C30000F020F020F020F020F020F020F020F02FC
:103C40000F020F020F020F020F020F020F020F02EC
:103C50000F020F020F020F020F020F020F020F02DC
:103C60000F020F020F020F020F020F020F020F02CC
:103C70000F020F020F020F020F020F020F020F02BC
:103C80000F020F020F020F020F020F020F020F02AC
:103C90000F020F020F020F020F020F020F020F029C
:103CA0000F020F020F020F020F020F020F020F028C
:103CB0000F010F010F010F010F010F010F010F0184
:103CC0000F010F010F010F010F010F010F010F0174
:103CD0000F000F000F000F000F010F010F010F0168
:103CE0000F010F010F010F000F000F010F010F0156
:103CF0000F010F000F000F000F000F000F000F004B
:103D00000F000F000F000F000F000F000F000F003B
:103D10000F000F000F000F000F000F000F000F002B
:103D20000F000F000F000F000F000F000F000F001B
:103D30000F000F000F000F000F000F000E030E0307
:103D40000E030E030E030E030E030E030E030E03EB
:103D50000E030E030E030E030E030E030E020E02DD
:103D60000E020E020E020E020E020E020E020E01D4
:103D70000E010E010E010E010E010E010E010E01CB
:103D80000E010E010E010E010E010E010E000E00BD
:103D90000E000E000E000E000E000E000E000E00B3
:103DA0000E000E000E000E000E000E000E000E00A3
:103DB0000E000E000E000E000E000D030E000D038F
:103DC0000D030D030D030D030D030D020D020D0276
:103DD0000D020D020D020D020D020D020D020D026B
:103DE0000D020D020D020D020D020D020D020D025B
:103DF0000D020D020D020D020D020D020D020D024B
:103E00000D020D020D020D020D020D020D020D023A
:103E10000D010D010D010D010D010D010D010D0132
:103E20000D010D010D010D010D010D010D010D0122
:103E30000D000D000D000D000D000D000D000D001A
:103E40000D000D000D000D000D000D000D000D000A
:103E50000D000D000D000D000D000D000D000D00FA
:103E60000D000D000D000D000D000D000D000D00EA
:103E70000D000D000D000D000D000D000D000D00DA
:103E80000C030C030C030C030C030C030C030C03BA
:103E90000C030C030C030C030C030C030C030C03AA
:103EA0000C030C030C030C030C030C030C030C039A
:103EB0000C030C030C030C030C020C020C020C028E
:103EC0000C020C020C020C020C020C020C020C0282
:103ED0000C020C020C020C020C020C020C020C0272
:103EE0000C020C020C020C020C010C010C010C0166
:103EF0000C010C010C010C010C010C010C010C015A
:103F00000C010C010C010C010C010C010C010C0149
:103F10000C010C010C010C010C010C010C010C0139
:103F20000C010C010C010C010C010C010C010C0129
:103F30000C010C010C010C010C010C010C010C0119
:103F40000C010C010C000C000C000C000C000C000F
:103F50000C000C000C000C000C000C000C000C0001
:103F60000C000C000C000C000C000C000C000C00F1
:103F70000C000C000C000C000C000C000C000C00E1
:103F80000C000C000C000C000B030B030B030B03C9
:103F90000B030B030B030B030B030B030B030B03B1
:103FA0000B030B030B030B030B030B030B030B03A1
:103FB0000B030B030B030B030B020B020B020B0295
:103FC0000B020B020B010B010B010B020B020B028C
:103FD0000B020B020B020B020B020B010B010B017C
:103FE0000B010B010B000B000B000B000B000B0077
:103FF0000B000B000A030A030A030A030A030A035D
:104000000A030A030A030A030A020A030A020A024B
:104010000A020A020A020A020A020A020A020A0240
:104020000A020A020A020A020A020A020A020A0230
:104030000A020A020A020A020A020A020A020A0220
:104040000A020A020A020A020A020A020A020A0111
:104050000A010A010A010A010A010A010A010A0108
:104060000A010A010A010A010A000A000A000A00FC
:104070000A000A000A000A000A000A0009030903EC
:1040800009030903090309030903090309030903D0
:104090000A000A000A000A000A000A000A000A00D0
:1040A0000A000A000A000A000A010A010A010A01BC
:1040B0000A010A010A010A010A010A010A010A01A8
:1040C0000A010A000A000A000A000A000A000A009F
:1040D0000A00090309030903090309030903090382
:1040E0000903090309030903090309030903090370
:1040F0000903090309030903090309030903090360
:1041000009030903090309030903090309030A0051
:104110000A000A000A000A000A000A000A000A004F
:104120000A000A000A000A000A000A000A000A003F
:104130000A000A000A000A000A000A000A000A002F
:104140000A000A000A000A000A000A000A000A001F
:104150000A000A000A000A000A000A000A000A000F
:104160000A000A000A000A000A000A000A000A00FF
:104170000A000A000A000A000A000A000A000A00EF
:104180000A000A000A000A000A00090309030903D9
:1041900009030903090309030903090109020902C3
:1041A00009020902090209010902090109010901BB
:1041B00009010901090109010901090009000900B2
:1041C00009000900090009000900090009000900A7
:1041D000090009000900080309000803080308038F
:1041E0000803080308030803080308030803080377
:1041F0000803080308030803080308030803080367
:104200000803080308030803080308030802080258
:104210000802080208020802080108010801080152
:10422000080108010800080008000800080008004C
:104230000800080007030703070307030703070332
:10424000070307030703070307030703070307031E
:104250000703070307030703070307030702070210
:104260000702070207020702070207020702070107
:104270000701070107010701070107000700070001
:1042800007000700060306030603060306030603EA
:1042900006030603060306030603060306030603D6
:1042A00006030603060306030603060306030603C6
:1042B00006030603060306030603060306030603B6
:1042C00007000700070007000700070007000701B5
:1042D000070107010701070107010701070107019E
:1042E000070107010701070107010701070107018E
:1042F000070107010701070107010701070107017E
:104300000701070107020702070207020702070267
:10431000070207030703070307030703070307034E
:10432000070307030703070307030703070307033D
:10433000080008000800080008000800080008003D
:104340000800080008000703070307030703070323
:10435000070307030703070307030703070307030D
:1043600007030703070307030703070307030703FD
:1043700007030703070307030703070307030703ED
:1043800007030703070307030703070307030800DF
:1043900008000800080008000800080008000800DD
:1043A00008010801080108010801080108010801C5
:1043B00008010801080108010801080108010801B5
:1043C00008010801080008000800080008000800AB
:1043D0000800080008000800080007030703070397
:1043E000070307030703070307030703070307037D
:1043F000070307030703070307030703070307036D
:10440000070307030703070307030703070307035C
:10441000070307030703070307030703070307034C
:104420000703070307020702070207020702070242
:10443000070107010701070107010701070007003E
:104440000700070007000700070007000603060330
:104450000603060306030603060306030603060314
:104460000603060306030603060306030603060304
:1044700006030603060306030603060306030603F4
:1044800006030603060306030603060306030603E4
:1044900006030603060306030603060306030603D4
:1044A00006030603060306030603060306030603C4
:1044B00006030603060306030603060306030603B4
:1044C00006030603060306030603060306030603A4
:1044D00007000700070007000700070007000700A4
:1044E0000700070007000700070007000700070094
:1044F000070107010701070107010701070107017C
:10450000070107010701070107010701070107016B
:10451000070107010701070107010701070107025A
:104520000702070207020701070207020702070244
:104530000702070207020702070207020701070234
:104540000701070107020702070207020702070126
:104550000701070207020702070107020702070215
:1045600007030703070307030703070307030703FB
:1045700007030702070107010702070207020701F5
:1045800007010701070107020701070107020702E8
:1045900007010702070107010701070107010702D9
:1045A00007010702070207010702070107020702C6
:1045B00007020702070207000700070007000700BD
:1045C00007000700070007000603070006030603AD
:1045D0000603060306030603060306030603060393
:1045E0000603060306030603060306030603060383
:1045F0000603060306030603060306030603060373
:104600000603060306030603060306030603060362
:104610000603060306030603060306030603060352
:104620000603060306030601060306010601060249
:104630000601060106010601060106010601060142
:104640000601060106010601060106010602060230
:10465000060206020602060206020602060206021A
:10466000060106010602060206020602060206020C
:1046700006020602060206020602060206020602FA
:1046800006020602060206020602060206020602EA
:1046900006020602060006000600060006000600E6
:1046A00006000600060006000600060006000600DA
:1046B00006000503050305030503050305030503BC
:1046C00005030503050305010501050105010501B4
:1046D00005010501050105010501050105010501AA
:1046E000050105010501050105010501050105019A
:1046F0000501050105010501050205020502050286
:104700000502050205020502050205020502050271
:104710000502050205020502050205020502050261
:104720000502050205020500050005020500050059
:104730000500050005000500050005000500050051
:104740000502050205020502050205020502050231
:104750000502050205020502050205020502050221
:104760000502050205020502050205020502050211
:104770000502050205020502050205020502050201
:1047800005020502050205020502050205020502F1
:1047900005020502050205020502050205000500E5
:1047A00005000500050005000500050005000500E1
:1047B00005000500050005000500040305000403CD
:1047C00004030403040304030403040304030403B1
:1047D00004030403040104010401040104010401AD
:1047E000040104010401040104020402040204029D
:1047F0000402040204000400040004000303030391
:104800000303030303010301030103010301030283
:104810000302030203020302030203020302030072
:10482000030003000300030003000300020302036C
:104830000203020302030203020302030203020350
:104840000203020302030203030003000300030048
:104850000300030003000300030003000300030040
:104860000302030203000300030003000203020328
:104870000203020302030203020302010201020116
:10488000020102010201020102010201020202020E
:1048900002020202020202020202020202020200FA
:1048A00002020200020002000200020002000202F4
:1048B00002020202020202020202020202020202D8
:1048C00002020202020202020202020202020202C8
:1048D00002020202020202020202020202020202B8
:1048E00002020202020202020202020202000200AC
:1048F00002000200020002000200020002000200A8
:104900000200020002000103020002000200020095
:104910000200020002000200020002000200020087
:104920000200020002000200020002020202020271
:104930000202020202020202020202020202020257
:10494000020202020202020202020202020002004B
:104950000200020002000103010301030101010141
:104960000103010301030101010101010101010230
:104970000102010201020102010201000100010025
:10498000010001000100010001000100010000031D
:1049900000030003000300030003000300030003FF
:1049A00001000003000300030003000300030003F1
:1049B00000030003000100010001000100020002E9
:1049C00000020000000000000000000000000000E5
:1049D00000000000000000000000000001000100D5
:1049E00001000100010001000100010001000100BF
:1049F00001000100010001000100010001000100AF
:104A00000100010001000100000000000100FF00A2
:104A1000FF00FB00D103D103D003D102D103D003A7
:104A2000D201D000D000D201D100D101D203D000F8
:104A3000D003D200D101D200D102D300524620735C
:104A40006F7572636520362047487A200D0A204131
:104A50006C6A617A20422E2076322E3120000000CE
:104A6000524620736F7572636520362047487A0D71
:104A70000A00000076322E310D0A00004D487A0AF5
:104A80000000000064426D200000000053572E4FCC
:104A9000464600006B487A00202020002A2A2A2A55
:104AA00020534156494E47202A2A2A2A0A0000004C
:104AB0002020506C65617365207761697421202026
:104AC000000000002020204E6F206368616E676543
:104AD0007320202000000000AC1E0008921F000878
:104AE000921F0008921F0008921F0008D01E0008A5
:104AF000DE1E0008EC1E0008FA1E0008921F0008C7
:104B00000A1F0008181F0008261F0008921F00082F
:104B1000921F0008921F0008921F0008321F000811
:104B2000401F0008921F0008921F0008921F0008F3
:104B3000921F00084C1F00085A1F0008921F00080F
:104B40006A1F0008781F0008861F00080A20000856
:104B5000EC200008EC200008EC200008EC20000805
:104B60002E2000083C2000084A2000085820000899
:104B7000EC2000086620000874200008822000084D
:104B8000EC200008EC200008EC200008EC200008D5
:104B90008E2000089C200008EC200008EC20000873
:104BA000EC200008EC200008A8200008B62000082F
:104BB000EC200008C4200008D2200008E0200008F3
:104BC0003031323334353637383900006B487A208B
:104BD0000000000064426D2000000000487A0D0AC9
:104BE0000000000068656C70000000000D0A4120A4
:104BF000787878202D20616D706C697475646520FB
:104C00005B2B2F2D64426D5D0D0A462078787878F5
:104C1000787878202D206672657175656E637920CD
:104C20005B6B487A5D0D0A4D207878787878202D76
:104C3000206D6F64756C6174696F6E205B487A5D7E
:104C40000D0A5020313233343536373839202D2093
:104C5000736176652073657474696E67730D0A52AB
:104C6000202D2072657365742C20532078202D2010
:104C70006D656D6F72790D0A0D0A0000412000000C
:104C80004F4B0D0A00000000462000004D200000A0
:104C90005020313233343536373839005200000075
:104CA000532000004174742000000000556E7265AE
:104CB000636F676E697A656420636F6D6D616E64A2
:104CC0002E205472792068656C702E0D0A00000049
:084CD0000800002000000000B4
:084CD80034B4FF7F010000006D
:104CE0003F00000001000000000000000000000084
:104CF00000000000000000000000000000000000B4
:104D000000000000000000000000000000000000A3
:104D10000000000000000000000000000000000093
:104D20000000000000000000000000000000000083
:104D30000000000000000000000000000000000073
:104D40000000000000000000ED000008C5000008A1
:107C0000808D5B000000000000000000808D5B00A4
:107C10000000000000000000808D5B0000000000FC
:107C200000000000808D5B000000000000000000EC
:107C3000808D5B000000000000000000808D5B0074
:107C40000000000000000000808D5B0000000000CC
:107C500000000000808D5B000000000000000000BC
:107C6000808D5B000000000000000000808D5B0044
:087C700000000000000000000C
:0400000508000000EF
:00000001FF
